:100000005BC100008AC1000088C1000086C10000F9
:1000100084C1000082C1000080C100007EC10000D8
:100020007CC100007AC1000078C1000076C10000E8
:1000300074C1000072C1000070C100006EC10000F8
:100040006CC100006AC1000068C1000066C1000008
:1000500064C1000062C1000060C100000C946C36F5
:100060005CC100000C94D3390C94093A56C10000CD
:1000700054C1000052C1000050C100004EC1000038
:100080004CC100004AC1000048C1000046C1000048
:100090000C947E3A0C94B43A40C100000C94952D17
:1000A0003CC100003AC1000038C1000036C1000068
:1000B00034C1000032C1000030C100002EC1000078
:1000C0002CC100002AC1000028C100000C94293B6B
:1000D0000C945F3B22C100000C94D43B0C940A3C6E
:1000E0001CC10000BC37BF37AE37B237B837F63760
:1000F000C337C737CD37D137D537DB37DF37E337AE
:10010000F637E937ED37F137084AD73B3BCE016E7A
:1001100084BCBFFDC12F3D6C74319ABD56833DDA5E
:100120003D00C77F11BED9E4BB4C3E916BAAAABE6D
:10013000000000803F05A84CCDB2D44EB93836A996
:10014000020C50B9918688083CA6AAAA2ABE0000D3
:1001500000803F007C3C3E5E2B3D3F2F5B5D3B2C97
:100160002A225C0000000A0B02090C0D0E0807038E
:10017000040100000000000000000000000000007A
:10018000000000000000000000000000000000006F
:10019000121110000000000000000000000000002C
:1001A00000000000000000000000010210202008F4
:1001B00008102040102040800201020108040201C2
:1001C0000102040810204080804020100804020131
:1001D000800402018040201008040201080402018A
:1001E0000102040810204080010204081020408011
:1001F00005050505070508080808020202020A0AA3
:1002000008080404040401010101010101010303C0
:10021000030303030303040707070C0C0C0C0C0C6B
:100220000C0C0202020206060606060606060B0B68
:100230000B0B0B0B0B0B00002200250028002B00E2
:100240002E003100340002010000050108010B01FD
:1002500000002100240027002A002D003000330078
:1002600001010000040107010A014E414E494E49B7
:100270005459494E46CDCCCC3D0AD7233C17B7D173
:100280003877CC2B329595E6241FB14F0A00002019
:10029000410000C84200401C4620BCBE4CCA1B0E98
:1002A0005AAEC59D74004B0900121115AC2C3B3A97
:1002B000E63A913B3C3C560911241FBECFEFD1E2F8
:1002C000DEBFCDBF00E00CBF1CE0A0E0B2E0E8E084
:1002D000F2E900E00BBF02C007900D92A432B10713
:1002E000D9F724E1A4E2BCE001C01D92AE30B20710
:1002F000E1F712E0C6EBD2E000E006C02297010968
:10030000FE010BBF0E94A442C63AD10780E0080755
:10031000A9F70E94CC3E0C94F34872CE2BEE39E044
:10032000FC0131832083089508952BEE39E0FC0110
:10033000318320830C94D83E4F925F926F927F92CC
:100340008F929F92AF92BF92CF92DF92EF92FF92E5
:100350000F931F93CF93DF93CDB7DEB728970FB6D8
:10036000F894DEBF0FBECDBF8C01DC0150968D909E
:100370009D90AD90BC9053971496CD90DD90ED90EC
:10038000FC901797C814D904EA04FB0408F0FAC0DB
:100390001C966D917D918D919C911F9724E630E084
:1003A00040E050E00E947842C501B4016C197D091B
:1003B0008E099F090E9434426B017C0163E773E060
:1003C00084E991E10E94BD3CF8014089518962892C
:1003D00073892AE030E084E991E10E949E3D63E95F
:1003E00073E084E991E10E94BD3CD80114964D91DF
:1003F0005D916D917C9117972AE030E084E991E15D
:100400000E949E3D63EB73E084E991E10E94BD3C54
:10041000F80144855585668577852AE030E084E9D2
:1004200091E10E94823D69ED73E084E991E10E94CF
:10043000BD3C2AE030E0B701A60184E991E10E94C9
:10044000823DD80154962D913D914D915C915797E5
:1004500029833A834B835C83CA01B90128EE33E0D8
:1004600040E050E00E947842CA01B9010E94434036
:100470002BED3FE049E450E40E945C4120E030E095
:1004800044E353E40E94A83F4B015C010E94A53F56
:100490002B013C01C701B6010E9443406D837E835E
:1004A0008F8398879B01AC01C301B2010E945C411C
:1004B0000E9410402B013C01F80160A371A382A3AC
:1004C00093A3C501B4010E94BF412D813E814F819C
:1004D00058850E945C410E941040D80194966D930B
:1004E0007D938D939C9397971C968D909D90AD9046
:1004F000BC901F97F80180829182A282B38280888B
:100500009188A288B38814968D929D92AD92BC92E8
:10051000179729813A814B815C8118962D933D93E1
:100520004D935C931B97408E518E628E738E5C96BA
:100530006D937D938D939C935F976AEF73E084E94D
:1005400091E10E94BD3CF801408D518D628D738D0B
:100550002AE030E084E991E10E94823D68E174E0A4
:1005600084E991E10E94BD3CD8015C964D915D917A
:100570006D917C915F972AE030E084E991E10E94DF
:10058000823D03C0C12CD12C7601C701B60128964B
:100590000FB6F894DEBF0FBECDBFDF91CF911F9194
:1005A0000F91FF90EF90DF90CF90BF90AF909F9012
:1005B0008F907F906F905F904F900895CF93DF93CF
:1005C000EC0166E374E084E991E10E94C83C62E5D5
:1005D00074E084E991E10E94BD3C688179814AE040
:1005E00050E084E991E10E946C3D65E674E084E9A5
:1005F00091E10E94BD3C4A815B816C817D812AE052
:1006000030E084E991E10E94823D69E774E084E989
:1006100091E10E94BD3C4E815F81688579852AE029
:1006200030E084E991E10E94823D61E974E084E96F
:1006300091E10E94BD3C4A855B856C857D852AE001
:1006400030E084E991E10E94823D68EA74E084E947
:1006500091E10E94BD3C4E855F85688979892AE0D9
:1006600030E084E991E10E94823D61EC74E084E92C
:1006700091E10E94BD3C4A895B896C897D892AE0B1
:1006800030E084E991E10E94823D66ED74E084E906
:1006900091E10E94BD3C4E895F89688D798D2AE089
:1006A00030E084E991E10E94823D6BEE74E084E9E0
:1006B00091E10E94BD3C4A8D5B8D6C8D7D8D2AE061
:1006C00030E084E991E10E94823D64E075E084E9D4
:1006D00091E10E94BD3C4E8D5F8D68A179A12AE019
:1006E00030E084E991E1DF91CF910C94823D0F934A
:1006F0001F93CF93DF9384E00E947E37EC01259611
:1007000083E00E947E378C010B5F1F4F85E00E94C3
:100710007E37059624E630E0B9010E9443429F935C
:100720008F937F936F93C801B9010E9443429F93B7
:100730008F937F936F93CE01B9010E9443429F93A1
:100740008F937F936F9387E295E09F938F9384EDD0
:100750009CE09F938F930E949E448DB79EB74096D6
:100760000FB6F8949EBF0FBE8DBF84ED9CE0DF9165
:10077000CF911F910F910895CF92DF92EF92FF9248
:10078000CF93DF93CDB7DEB7A4970FB6F894DEBF53
:100790000FBECDBFBE016F5F7F4F87E69DE00E9419
:1007A000A33063E475E084E991E10E94BD3C4D898A
:1007B0005E896F89788D22E030E084E991E10E94C2
:1007C000853E66E475E084E991E10E94BD3C498D77
:1007D0005A8D6B8D7C8D22E030E084E991E10E949E
:1007E000853E6EE37AE084E991E10E94C83C2D8960
:1007F0003E894F89588D698D7A8D8B8D9C8D0E9495
:100800004E3F20E030E044E353E40E945C412BED96
:100810003FE049E450E40E94A83F6B017C0120E0E6
:1008200030E0A9010E94A13F87FF0AC020E030E02C
:1008300044EB53E4C701B6010E94DB3E6B017C012F
:1008400020E030E04AE754E4C701B6010E945C4171
:100850000E941040A4960FB6F894DEBF0FBECDBF25
:10086000DF91CF91FF90EF90DF90CF900895CF92DE
:10087000DF92EF92FF92CF93DF93EC0128E833E110
:1008800040E050E068EB7BE080E090E00E94AF3E0B
:100890006B017C012AE030E0AB01BC0184E991E10D
:1008A0000E94823DCE010E945D3282E090E09983F9
:1008B0008883CE82DF82E886F986DF91CF91FF9030
:1008C000EF90DF90CF900895CF93DF93CDB7DEB751
:1008D0006B970FB6F894DEBF0FBECDBF80E00E94CD
:1008E0007E37BC01882777FD8095982F0E94863E31
:1008F00060E080E00E94F73761E081E00E94F73716
:1009000060E08EE00E94F73761E08FE00E94F737E9
:1009100060E081E10E94F73761E080E10E94F737F3
:1009200060E083E10E94F73761E082E10E94F737DF
:1009300061E084E00E94F73726E040EC52E160E09D
:1009400070E08BE693E10E94713926E040E855E2C1
:1009500060E070E084E991E10E94713926E040E8AE
:1009600055E260E070E08EEC92E10E94713960E047
:1009700084E00E94303861E08AE00E94F73761E04D
:1009800085E30E94F73761E086E00E94F73761E077
:1009900085E00E94F73760E085E00E94303860E033
:1009A00086E00E9430381092240C1092250C109290
:1009B000260C1092270C0E94B6366093280C709378
:1009C000290C80932A0C90932B0C61E087E69DE024
:1009D0000E94C32E64E670E080E090E00E94E5365D
:1009E00087E69DE00E941230811107C06AE475E03D
:1009F00084E991E10E94C83CFFCF6AE086E79EE06F
:100A00000E94681081110BC06BE775E084E991E1E9
:100A10000E94C83C61E086E00E94303872C067E9FD
:100A200075E084E991E10E94C83C23E148E852E086
:100A300066E77EE0CE0101960E947B118B819C814E
:100A400090934F0D80934E0D8D819E81AF81B8851F
:100A50008093500D9093510DA093520DB093530D70
:100A600089859A85AB85BC858093540D9093550DEF
:100A7000A093560DB093570D8DE0FE013D96A8E56D
:100A8000BDE001900D928A95E1F78A8D9B8D909340
:100A9000660D8093650D8CE49DE00E945B108823B9
:100AA00081F160EC79E08CE49DE00E94C83C60E15B
:100AB00072E08CE49DE00E94C83C60910E0270914F
:100AC0000F028CE49DE00E94C83C60910C02709182
:100AD0000D028CE49DE00E94BD3C60910C0270917F
:100AE0000D028CE49DE00E94BD3C60910A02709171
:100AF0000B028CE49DE00E94C83C8CE49DE00E94C7
:100B000049106B960FB6F894DEBF0FBECDBFDF91D4
:100B1000CF910895CF92DF92EF92FF920F931F93A0
:100B2000CF93DF93EB018A016A0182E0C80ED11CEA
:100B300042E050E0B60188E892E00E94754442E04D
:100B400050E0B8018AE892E00E94754442E050E02B
:100B5000BE018CE892E00E9475447E0182E0E80EBE
:100B6000F11C42E050E0B7018EE892E00E9475442B
:100B700068E872E084E991E10E94C83CB8016C5FCA
:100B80007F4F42E050E080E192E00E94754442E0F5
:100B900050E0B60183E192E00E94754442E050E0EB
:100BA000B80186E192E00E94754442E050E0BE0147
:100BB00089E192E00E94754442E050E0B7018CE187
:100BC00092E00E947544BE016C5F7F4F42E050E0AE
:100BD0008FE192E00E947544BE01695F7F4F43E060
:100BE00050E082E292E0DF91CF911F910F91FF9050
:100BF000EF90DF90CF900C9475444F925F926F927C
:100C00007F928F929F92AF92BF92CF92DF92EF929C
:100C1000FF921F93CF93DF93CDB7DEB76B970FB6DD
:100C2000F894DEBF0FBECDBF6AEA75E084E991E1BA
:100C30000E94C83C0E94B6366B017C012B013C012E
:100C400084E6480E511C611C711C4CE251E060E0CE
:100C500070E08EE69CE0FED7182F8EDD60930003D7
:100C600070930103809302039093030369EB75E093
:100C700084E991E10E94BD3C409100035091010341
:100C800060910203709103032AE030E084E991E16E
:100C90000E94823D82E090E084D78090820C909008
:100CA000830CA090840CB090850C8091600C909186
:100CB000610CA091620CB091630C881A990AAA0A7F
:100CC000BB0A9F928F928DB79EB782970FB6F8940A
:100CD0009EBF0FBE8DBFADB7BEB7119682E2EEE6E6
:100CE000FCE001900D928A95E1F78CE49CE075D4CC
:100CF0008091820C9091830CA091840CB091850C12
:100D00008093600C9093610CA093620CB093630C81
:100D10000FB6F894DEBF0FBECDBF69EC75E084E975
:100D200091E10E94BD3C61E076E084E991E10E949E
:100D3000BD3C2AE030E0B701A60184E991E10E94C0
:100D4000923D65E176E084E991E10E94BD3C4091ED
:100D5000820C5091830C6091840C7091850C2AE078
:100D600030E084E991E10E94923D65E176E084E91A
:100D700091E10E94BD3C2AE030E0B501A40184E984
:100D800091E10E949E3D68E176E084E991E10E9454
:100D9000C83C66E576E084E991E10E94BD3C64E8E8
:100DA00076E084E991E10E94BD3C409100035091BE
:100DB000010360910203709103032AE030E084E9AB
:100DC00091E10E94253D80E99CE0F8DB69E976E04D
:100DD00084E991E10E94BD3C80E99CE00E945D3283
:100DE0008091000390910103A0910203B09103034D
:100DF00080939E0C90939F0CA093A00CB093A10C99
:100E00008091540C9091550CA091560CB091570CB8
:100E10008093A20C9093A30CA093A40CB093A50C68
:100E20008091580C9091590CA0915A0CB0915B0C88
:100E30008093A60C9093A70CA093A80CB093A90C38
:100E400083E090E09093910C8093900C62ED76E0BB
:100E500084E991E10E94BD3C64E876E084E991E197
:100E60000E94BD3C40910003509101036091020338
:100E7000709103032AE030E084E991E10E94253D6E
:100E800080E99CE09BDB6FEF76E084E991E10E94D2
:100E9000BD3C67E377E084E991E10E94BD3C82EBD1
:100EA0009CE08CDB65E977E084E991E10E94BD3C40
:100EB00082EB9CE00E945D3262EB7CE08EEC92E182
:100EC0000E94173482EB9CE0D2DC82EB9CE076DB64
:100ED0008091B20C9091B30C029709F0EBC06DECCD
:100EE00077E084E991E10E94BD3C60E278E084E92A
:100EF00091E10E94BD3C4091960C5091970C6091FD
:100F0000980C7091990C2AE030E084E991E10E94FC
:100F1000253D62E378E084E991E10E94BD3C409187
:100F2000300C5091310C6091320C7091330C2AE0EE
:100F300030E084E991E10E94253D60E578E084E9B4
:100F400091E10E94BD3C4091340C5091350C609170
:100F5000360C7091370C2AE030E084E991E10E9470
:100F6000923D63E778E084E991E10E94BD3C4091C5
:100F7000380C5091390C60913A0C70913B0C2AE07E
:100F800030E084E991E10E94253D63E978E084E95D
:100F900091E10E94BD3C8091B80C9091B90CA09158
:100FA000BA0CB091BB0C8093960C9093970CA093C5
:100FB000980CB093990C8093300C9093310CA093C3
:100FC000320CB093330CC092340CD092350CE092BA
:100FD000360CF092370C8091000390910103A091A0
:100FE0000203B09103038093380C9093390CA093C3
:100FF0003A0CB0933B0C84E29CE09ED964EA78E022
:1010000084E991E10E94BD3C60E278E084E991E1ED
:101010000E94BD3C4091960C5091970C6091980CA9
:101020007091990C2AE030E084E991E10E94253D1D
:1010300062E378E084E991E10E94BD3C4091300C8C
:101040005091310C6091320C7091330C2AE030E0F9
:1010500084E991E10E94253D60E578E084E991E131
:101060000E94BD3C4091340C5091350C6091360C7F
:101070007091370C2AE030E084E991E10E94923DC2
:1010800063E778E084E991E10E94BD3C4091380C2F
:101090005091390C60913A0C70913B0C2AE030E091
:1010A00084E991E10E94253D63E978E084E991E1DA
:1010B0000E94BD3C60E97CE08EEC92E10E948434A9
:1010C00023E148E852E066E77EE0CE0101960E9407
:1010D0007B118B819C8190934F0D80934E0D8D8160
:1010E0009E81AF81B8858093500D9093510DA09350
:1010F000520DB093530D89859A85AB85BC8580933D
:10110000540D9093550DA093560DB093570D8DE04F
:10111000FE013D96A8E5BDE001900D928A95E1F7AC
:101120008A8D9B8D9093660D8093650D112309F434
:101130003DC061E085E00E9430388EE69CE061D1E0
:101140005C018CE49DE0B7D7882329F0B5018CE4DD
:101150009DE00E94BD3CB50184E991E10E94BD3C47
:101160008CE49CE04ED15C018CE49DE0A4D7882304
:1011700029F0B5018CE49DE00E94BD3CB50184E9F5
:1011800091E10E94BD3CB5018BE693E10E94BD3C1C
:10119000AEDA5C018CE49DE08ED7882329F0B5019E
:1011A0008CE49DE00E94BD3CB50106C060E085E096
:1011B0000E94303866EF78E084E991E10E94BD3CFE
:1011C0000E94B6369B01AC012C193D094E095F09FE
:1011D000A4E6B0E00E949A4224E630E040E050E00D
:1011E0000E94564249015A018CE49DE064D788234D
:1011F00039F04AE050E0B4018CE49DE00E946C3D7F
:101200004AE050E0B40184E991E10E946C3D8CE435
:101210009DE051D7882341F060E086E00E9430389D
:101220008CE49DE036D704C061E086E00E9430384F
:10123000C414D504E604F70428F40E94B6366B0102
:101240007C01F6CF6B960FB6F894DEBF0FBECDBF14
:10125000DF91CF911F91FF90EF90DF90CF90BF90E3
:10126000AF909F908F907F906F905F904F90089578
:10127000BC0184E991E10C94BD3CAB01BC0122E0CE
:1012800030E084E991E10E94853E65E176E084E901
:1012900091E10C94BD3C4BE658ED64E170E087E6CB
:1012A0009DE00E941B2F8CE49DE093C68BEE99E09D
:1012B0009093680D8093670D08950F931F93FC0121
:1012C00060E070E0CB01019120ED200F2A30A0F406
:1012D000AAE0B0E09B01AC010E949A42112707FDF1
:1012E000109500531109222717FD2095322F600F0A
:1012F000711F821F931FE7CF1F910F910895CF9306
:10130000DF93EC016C817D818E819F816C5C7241E9
:10131000854B984F0E94434020E034E244E759E473
:101320000E94A83F25E33AEF4EE85CE30E945C414F
:1013300027E13DE84CE25FE30E945C412FED3EED8A
:101340004DEB5FE40E945C410E9410406887798702
:101350008A879B87688179818A819B81645B744AD3
:10136000864D92400E94434020E034E244E759E435
:101370000E94A83F25E33AEF4EE85CE30E945C41FF
:101380002FED3EED4DEB5FE40E945C410E9410406A
:101390006C877D878E879F87DF91CF910895CF934C
:1013A000DF93EC01688579858A859B850E9443409F
:1013B00020E83AE94AE55CE30E945C410E94104063
:1013C00064537D4E8A4497406C837D838E839F83D4
:1013D0006C857D858E859F850E94434029E438E594
:1013E00043E15CE30E945C410E9410406C547B45E9
:1013F00089429D4F688379838A839B83DF91CF9154
:1014000008952F923F924F925F926F927F928F92A8
:101410009F92AF92BF92CF92DF92EF92FF920F9383
:101420001F93CF93DF93CDB7DEB72C970FB6F89409
:10143000DEBF0FBECDBF7C01FC0180849184A284FD
:10144000B384B7FC03C0C501B40107C06627772782
:10145000CB01681979098A099B0928EE33E040E03D
:1014600050E00E94784269837A838B839C83F701E2
:10147000448455846684778477FC03C0C301B20139
:1014800007C066277727CB01641975098609970974
:1014900028EE33E040E050E00E9478421B018C01CE
:1014A000F701648D758D868D978D248935894689E0
:1014B00057892D833E834F835887208931894289FC
:1014C000538929873A874B875C8721A12F9320A1D5
:1014D0002F93238D2F93228D2F93218D2F93208D4A
:1014E0002F93B8EECB2EB3E0DB2EE12CF12CA7012D
:1014F00096010E9478429F938F937F936F935F939F
:101500004F933F932F936D817E818F819885A701A3
:1015100096010E9456429F938F937F936F935F93A0
:101520004F933F932F9369857A858B859C85A7017F
:1015300096010E9478429F938F937F936F935F935E
:101540004F933F932F931F930F933F922F92C3017B
:10155000B201A70196010E9478425F934F933F9397
:101560002F93FC81FF932B812F933A813F934981E5
:101570004F93C501B401A70196010E9478425F9381
:101580004F933F932F9385EF99E09F938F9382E83A
:101590009DE09F938F930E949E440FB6F894DEBF08
:1015A0000FBECDBF82E89DE02C960FB6F894DEBF4B
:1015B0000FBECDBFDF91CF911F910F91FF90EF90A4
:1015C000DF90CF90BF90AF909F908F907F906F9063
:1015D0005F904F903F902F9008952F923F924F929F
:1015E0005F926F927F928F929F92AF92BF92CF92B3
:1015F000DF92EF92FF920F931F93CF93DF93CDB7BC
:10160000DEB7A0970FB6F894DEBF0FBECDBF1C01AA
:1016100022968CAC9DACAEACBFAC229726968CAD1E
:101620009DADAEADBFAD2697898F9A8FAB8FBC8F26
:1016300080E1E1E6F3E0DE01119601900D928A95DA
:10164000E1F76A966EAD7FAD6A97882777FD809542
:10165000982F0E94434020E030E04AE754E40E9483
:10166000A83F2B013C0120E836E948E15AE46091AB
:1016700044037091450380914603909147030E9473
:101680005141181634F5C501B4010E94434020E0D1
:1016900030E04AE754E40E94A83F6093440370930B
:1016A00045038093460390934703698D7A8D8B8D14
:1016B0009C8D0E94434020E030E04AE754E40E94C1
:1016C000A83F609348037093490380934A03909323
:1016D0004B03D1015C966D917D918D919C915F97AB
:1016E0000E9443406B017C01F101628D738D88275C
:1016F00077FD8095982F0E9443409B01AC01C70164
:10170000B6010E945C4120E034E244E759E40E94C3
:10171000A83F6D8F7E8F8F8F98A3C501B4010E9463
:10172000434020E030E04AE754E40E94A83F4B01E8
:101730005C01D10158966D917C915997882777FD6E
:101740008095982F0E9443409B01AC01C701B601D0
:101750000E945C4120E034E244E759E40E94A83F43
:10176000A30192010E945C419B01AC01C501B4013F
:101770000E94DB3E698B7A8B8B8B9C8B698D7A8D7B
:101780008B8D9C8D0E94434020E030E04AE754E47A
:101790000E94A83F6B017C01A30192016D8D7E8D9B
:1017A0008F8D98A10E945C419B01AC01C701B601DD
:1017B0000E94DB3E6D8B7E8B8F8B988F2A966CAD53
:1017C0007DAD8EAD9FAD2A970E94434020E030E072
:1017D0004AE754E40E94A83F9B01AC010E945C418F
:1017E0006D877E878F87988B69837A838B839C83B1
:1017F000FE0131967F0193018201AE014F5E5F4F82
:1018000064E073E084E493E00E94BA2020E030E0DA
:101810004AE754E460914403709145038091460384
:10182000909147030E945C410E941040D10118969C
:101830006D937D938D939C931B9720E030E04AE756
:1018400054E4609148037091490380914A03909158
:101850004B030E945C410E941040F1016487758730
:101860008687978720E030E04AE754E460914C0394
:1018700070914D0380914E0390914F030E945C4103
:101880004B015C0120E030E04AE754E460915003F2
:101890007091510380915203909153030E945C41D7
:1018A0006B017C0160910403709105038091060334
:1018B000909107030E94C94120E030E04AE754E4D8
:1018C0000E945C410E941040D10150966D937D931F
:1018D0008D939C935397C10162DDA5019401C501CD
:1018E000B4010E945C412B013C01A7019601C70194
:1018F000B6010E945C419B01AC01C301B2010E9490
:10190000DB3E0E94C94120E030E04AE754E40E94F7
:101910005C410E941040F101648F758F868F978F14
:101920002B013C01F4E64F0E511C611C711C29EC8B
:10193000421651046104710440F10E9443402B019E
:101940003C0120E034E244E759E4C501B4010E94BF
:101950005C41A30192010E94A83F0E941040D10166
:1019600059967C936E93589720E034E244E759E40B
:10197000C701B6010E945C41A30192010E94A83FE9
:101980000E941040F101738F628FA0960FB6F894F9
:10199000DEBF0FBECDBFDF91CF911F910F91FF90A2
:1019A000EF90DF90CF90BF90AF909F908F907F90FF
:1019B0006F905F904F903F902F9008952F923F929D
:1019C0004F925F926F927F928F929F92AF92BF924F
:1019D000CF92DF92EF92FF920F931F93CF93DF93FB
:1019E000EC018B01CB0169DC4B015C0161157105D8
:1019F00081059105C1F0A0E1B7E29B01AC010E9415
:101A00009A426B017C016EE270E0C8010E945C4466
:101A10008C010F5F1F4FC80150DC4B015C018C0C27
:101A20009D1CAE1CBF1C6CE270E0C8010E945C44AF
:101A3000FC01019631802CE2321201C0312C6CE2A3
:101A400070E00E945C448C010F5F1F4FC80135DCC1
:101A50006B017C016115710581059105C1F0A0E163
:101A6000B7E29B01AC010E949A422B013C016EE25D
:101A700070E0C8010E945C448C010F5F1F4FC801D9
:101A80001CDC6B017C01C40CD51CE61CF71C6CE251
:101A900070E0C8010E945C448C010F5F1F4FFC0185
:101AA0002180FCE22F1201C0212CC501B40120E4E9
:101AB00032E44FE050E00E94564229013A019B0176
:101AC000AC01A4E6B0E00E949A422CE330E040E092
:101AD00050E00E94564249015A01A301920160E47C
:101AE00072E48FE090E00E943442860E971EA81E9A
:101AF000B91E23E5321208C0B094A094909480944B
:101B0000811C911CA11CB11C88829982AA82BB8273
:101B1000C701B60120E432E44FE050E00E94564293
:101B200049015A019B01AC01A4E6B0E00E949A422F
:101B30002CE330E040E050E00E94564269017A0117
:101B4000A501940160E472E48FE090E00E943442C9
:101B5000C60ED71EE81EF91E87E5281208C0F094AD
:101B6000E094D094C094C11CD11CE11CF11CCC8227
:101B7000DD82EE82FF82CE01C2DBC801DF91CF9110
:101B80001F910F91FF90EF90DF90CF90BF90AF909B
:101B90009F908F907F906F905F904F903F902F908D
:101BA0000895FF920F931F93CF93DF938C01809141
:101BB000810D882309F447C0F12C0230110571F022
:101BC0000330110599F001301105C1F481E392E170
:101BD0000E946538EC0181E392E117C08EEC92E13E
:101BE0000E946538EC018EEC92E10FC08BE693E128
:101BF0000E946538EC018BE693E107C084E991E12E
:101C00000E946538EC0184E991E10E947E38F11070
:101C100002C02E97C4F08F3F81F28A3071F22F2DCF
:101C2000332727FD309597E7F901E650F24FF91673
:101C300011F08D3029F410821092810D81E004C0E2
:101C40008083F394BACF80E0DF91CF911F910F9101
:101C5000FF9008956F927F928F929F92AF92BF9262
:101C6000CF92DF92EF92FF920F931F93CF93DF9368
:101C7000EC014A015B010E94B6366B017C01C80C85
:101C8000D91CEA1CFB1C80E197E2A0E0B0E0888B45
:101C9000998BAA8BBB8B83E090E083DF182F88237E
:101CA00059F046E050E067E57AE08AEF9DE00E9457
:101CB0006744892B81F708C00E94B636C616D7063E
:101CC000E806F90670F785C00E94B6364B015C0144
:101CD0006CE270E081E09EE00E945C44BC016F5FBA
:101CE0007F4FCE016BDE6CE270E00E945C44FC0131
:101CF0001181103381F26CE270E003960E945C4423
:101D000001963C01DADA6CE270E0C3010E945C44A7
:101D100001963C01D2DA062F6EE270E0C3010E9408
:101D20005C440196CADA302F330F232F220F220F83
:101D3000230F620F711D811D911D70E080E090E006
:101D40000E94414020E030E040E251E40E94A83F80
:101D50002CE53FE842E450E40E945C419B01AC0169
:101D60000E945C412CE13BEE4BE451E40E94DB3EDF
:101D70000E94C94120E030E04AE754E40E945C41FF
:101D80000E941040688B798B8A8B9B8B80917D0D94
:101D900090917E0DA0917F0DB091800D892B8A2BA3
:101DA0008B2B79F44EE55AE061E07EE0CE010E9493
:101DB0008A0580927D0D90927E0DA0927F0DB0924B
:101DC000800D8C8A9D8AAE8ABF8A103309F463CF56
:101DD00011E0812FDF91CF911F910F91FF90EF9034
:101DE000DF90CF90BF90AF909F908F907F906F903B
:101DF0000895CF93CFB7F8948091750E811127C0C5
:101E0000E5E2F2E08491EFEDF1E09491E82FF0E06B
:101E1000EE0FFF1FE05BFD4FA591B4918C918923DC
:101E200021F461E085E30E94303861E085E30E949F
:101E3000F7378CB580618CBD8CB580648CBD61E05A
:101E400084E30E94F73761E083E30E94F7378091D3
:101E5000750E8F5F8093750ECFBFCF910895CF938E
:101E6000DF931F92CDB7DEB76983DC01ED91FC9162
:101E70000280F381E02D41E050E0BE016F5F7F4FB3
:101E800019950F90DF91CF910895CF93DF93EC01D7
:101E9000898D9A8D009759F0FC01138212820E945D
:101EA000771AE98DFA8D22813381232B31F081E07D
:101EB00090E09B838A8380E090E0DF91CF9108954A
:101EC000FC01818D928D009711F00C9429180895D2
:101ED000CF93DF931F92CDB7DEB741E050E0BE0154
:101EE0006F5F7F4FCCD6019719F4898190E002C0D3
:101EF0008FEF9FEF0F90DF91CF910895FC01818DBF
:101F0000928D009709F0E4CF8FEF9FEF08950F9324
:101F10001F93CF93DF938C01FC01818D928D0097ED
:101F2000A9F0D6DFEC018F3FFFEF9F0791F0F8019A
:101F3000818D928DFC014285538564857585415064
:101F4000510961097109EAD7CE0105C080E090E02E
:101F500002C08FEF9FEFDF91CF911F910F910895F6
:101F6000CF92DF92EF92FF920F931F93CF93DF9365
:101F7000EC017B016A011B821A8208EE13E020E06B
:101F800030E00C831D832E833F8389E69AE099839A
:101F900088838DE190E00E94CB429A8F898F0097D1
:101FA00079F02DE1F701DC0101900D922A95E1F71E
:101FB0004CE050E0B601CE010C960E947544188E9C
:101FC000DF91CF911F910F91FF90EF90DF90CF9015
:101FD0000895FC011382128248EE53E060E070E045
:101FE000448355836683778389E69AE0918380836F
:101FF000128E118E14860895DC015996ED91FC9194
:102000005A97309729F06285738584859585089560
:102010006FEF7FEFCB010895DC015996ED91FC91B4
:102020005A97309729F0638974898589968908952C
:1020300060E070E0CB010895CF92DF92EF92FF92C3
:10204000CF93DF93EC01898D9A8D892BC9F0CE0156
:10205000E3DF6B017C01CE01CFDFA7019601261BD8
:10206000370B480B590BDA01C901811530E893078A
:10207000A105B10538F08FEF9FE7A0E0B0E002C006
:1020800080E090E0DF91CF91FF90EF90DF90CF90D4
:102090000895CF93DF93EC01898D9A8D009741F0DD
:1020A0000E946E18898D9A8D0E9463431A8E198E34
:1020B000DF91CF910895DC015996ED91FC915A97EB
:1020C000309721F081E09581911101C080E0089561
:1020D0000F931F93CF93DF93EC01462F61E0C0D2A3
:1020E000811102C080E01CC08E01045F1F4F41E0DF
:1020F000BE01C8010E94A81F882351F0B801CE017B
:102100008A966ED591E0811101C090E0892F08C0B8
:1021100040E0BE01C8010E94A81F882319F3EECF3A
:10212000DF91CF911F910F910895FC01DB01129671
:102130008D919C911397938382838BE79AE091838F
:10214000808314968C911497848315968C9115979F
:10215000858316964D915D916D917C91199746837B
:102160005783608771871A964D915D916D917C912F
:102170001D9742875387648775871E964D915D91A1
:102180006D917C91519746875787608B718B5296E2
:102190008C915297828B53964D915D916D917C916C
:1021A0005697438B548B658B768B57964D915D91EB
:1021B0006D917C915A97478B508F618F728F5B9690
:1021C0008D919C915C97948F838F08954F925F922D
:1021D0006F927F928F929F92AF92BF92CF92DF9237
:1021E000EF92FF920F931F93CF93DF93CDB7DEB79C
:1021F000C754D1090FB6F894DEBF0FBECDBF6C0136
:102200004A013901665D7F4F5E018EE1A80EB11C67
:10221000C5018BDF1C821B828BE79AE09A8389833E
:102220001E828401FE0131967F015A2C4B2C6FE2F5
:1022300070E0C8010E945C440097D9F1F801208148
:102240002F3219F40F5F1F4FF2CF801B8D3008F033
:102250008CE0A82EB12CA501B801CE01CB960E942E
:102260007544EBE3F0E0EC0FFD1FEA0DFB1D10825F
:10227000C70134D721E0AE01455C5F4F652D742D59
:10228000C7010E949819811109C0F60113821282B8
:102290008BE79AE091838083158214C00A0D1B1D81
:1022A000852D942D1BD7C2015E2C4F2CE92EF82EC4
:1022B000BECF08191909F30111830083652D742D10
:1022C000C60133DFC601C95BDF4F0FB6F894DEBF2E
:1022D0000FBECDBFDF91CF911F910F91FF90EF9077
:1022E000DF90CF90BF90AF909F908F907F906F9036
:1022F0005F904F9008959F92AF92BF92CF92DF92DE
:10230000EF92FF920F931F93CF93DF93CDB7DEB77A
:10231000C955D1090FB6F894DEBF0FBECDBF7C0101
:102320006B015A01922E9E01285A3F4FCE01CB9647
:102330004DDF6A960EAD1FAD6A970A0D1B1DF801A1
:102340008081811109C0BE01655C7F4FCE0101967D
:10235000ECDE45E75AE03BC019A218A28BE79AE0F1
:102360009F8F8E8F1BA221968FAD2197811103C065
:10237000C7012FDE31C08250823058F4B601665D4D
:102380007F4F292DA801CE014E96D2D781110EC0C4
:10239000EFCF292DA801BE01655C7F4FCE014E967F
:1023A000C7D7882329F3CE01CB9698D6892D86707E
:1023B00039F049A95AA96BA97CA9CE014E96AED590
:1023C000BE01625E7F4FCE010196AFDEA801BE0165
:1023D0006F5F7F4FC701C4DDC701C75ADF4F0FB61C
:1023E000F894DEBF0FBECDBFDF91CF911F910F914B
:1023F000FF90EF90DF90CF90BF90AF909F900895A7
:1024000010927B0E10927C0E10927F0E1092810E15
:1024100082E090E0A0E0B0E08093820E9093830E83
:10242000A093840EB093850E1092990E1092A30E75
:102430001092A20E8BE79AE09093A10E8093A00ECB
:102440001092A50E08959FB7F8942091740E809174
:10245000720E213019F48DBB9FBF08958FBF089570
:102460002091740E222399F03FB7F8942091740EB6
:10247000213059F42DB32093720E4DB32091730E79
:10248000209524232DBB3FBF02C03093720E8CBD1C
:102490009DBD08958EBD00000DB407FEFDCF8EB525
:1024A00008958FEFF7CF61E0FC0184810E943038FE
:1024B0008091BF0E882331F01092BF0E8091740E70
:1024C0008111C1CF0895CF93DF93EC018091BF0EAE
:1024D000811108C081E08093BF0E8091C00E909161
:1024E000C10EBEDF60E08C81DF91CF910C9430385B
:1024F000CF93DF93EC018E81882379F08F819885CB
:102500009C012F5F3F4F38872F838230924010F419
:10251000C8DFF4CFCE01C7DF1E82DF91CF910895CF
:10252000673028F026E1FC01258380E008956230C1
:1025300081F030F4662359F06130B1F480E515C0C4
:10254000643059F040F0653079F482E50EC080E5E2
:1025500005C081E503C081E508C082E58093C00E17
:1025600081E08093C10E089583E58093C00E1092A0
:10257000C10E81E008950F931F93CF93DF93EB017A
:102580000E94B6368B018DDF8F3F49F00E94B63630
:10259000601B710B6C177D07B0F380E001C081E018
:1025A000DF91CF911F910F910895CF92DF92FF920B
:1025B0000F931F93CF93DF9300D01F92CDB7DEB759
:1025C0006C01F62E29833A834B835C8391DFC6012D
:1025D0007ADF6CE271E0C601CEDF8F2D80645ADFB6
:1025E00008E110E05C814B813A812981DA01C9015F
:1025F000002E04C0B695A795979587950A94D2F7B3
:1026000029833A834B835C8345DF08501109298174
:102610003A814B815C81083F8FEF180739F7FF2023
:1026200029F0E8E0FE1621F08FEF03C085E901C034
:1026300087E830DF10E035DFF601828787FF04C0CE
:102640001F3F11F01F5FF7CF0F900F900F900F906B
:10265000DF91CF911F910F91FF90DF90CF90089560
:10266000BF92CF92DF92EF92FF920F931F93CF937F
:10267000DF93EC01B62E1B8619861E821D824C83C9
:102680000E94B6368B0161E08C810E94F73761E0D1
:102690008C810E943038ADDB82E58093C00E1092B1
:1026A000C10E8091C00E9091C10EDADE2AE0F22EAA
:1026B0008FEFF0DEFA94E1F78091740E8111C3DEA2
:1026C000CE0101DF20E030E0A90160E0CE016DDF46
:1026D000F82E8A8781E0F81649F00E94B636601B12
:1026E000710B613D774070F381E046C02AEA31E02A
:1026F00040E050E068E0CE0158DF82FF02C0FB8678
:102700000CC094E0F92ECDDE8A87FA94E1F78A3A7C
:1027100011F082E031C082E08B878B85823031F40A
:10272000C12CD12CE12C80E4F82E03C0C12CD12C7B
:10273000760120E030E0A90167E3CE0136DFA70192
:10274000960169E2CE0131DF8A87882349F00E9431
:10275000B636601B710B613D774058F388E00CC0C2
:102760008B85823001F520E030E0A9016AE3CE01DB
:102770001CDF882379F086E08D83CE0194DE80E033
:10278000DF91CF911F910F91FF90EF90DF90CF904D
:10279000BF90089586DE807C803C11F483E08B87B7
:1027A00080DE7FDE7EDECE017EDE6B2DCE01DF9110
:1027B000CF911F910F91FF90EF90DF90CF90BF903E
:1027C000AFCE0F931F93CF93DF93EC010E94B636E9
:1027D0008B0167DE8A878F3F49F40E94B636601B03
:1027E000710B6D327140A8F38FE003C08E3F31F062
:1027F0008DE08D83CE0157DE80E001C081E0DF9166
:10280000CF911F910F910895CF92DF92EF92FF9297
:102810000F931F93CF93DF93EC016901011511050D
:1028200009F45DC0C801820F931F8130924008F007
:1028300058C08E81882371F088819981AA81BB81DB
:10284000481759076A077B0729F48F819885C816AE
:10285000D90600F5488359836A837B838B8583304F
:1028600039F039E0440F551F661F771F3A95D1F7AD
:102870009A01AB0161E1CE0198DE882319F083E073
:102880008D832FC0CE019DDF882359F118861F82CA
:1028900081E08E838F8198858C159D0538F401DE4B
:1028A0008F819885019698878F83F4CF6701E00E1A
:1028B000F11ECE14DF0429F0F4DDF60181936F01DF
:1028C000F8CF8F819885800F911F98878F832985F6
:1028D000222319F08115924010F0CE0109DE81E02B
:1028E00003C0CE01E0DD80E0DF91CF911F910F9119
:1028F000FF90EF90DF90CF900895EF92FF920F93AB
:102900001F93790100E012E020E030E07DDF1F91AD
:102910000F91FF90EF900895CF92DF92EF92FF9288
:102920000F931F93CF93DF931F921F92CDB7DEB704
:102930008C01862F49835A83ADDD4981C42E5A818B
:10294000D52EE12CF12CF60181916F01A3DDFFEF73
:10295000EF1AFF0AE11482E0F806A9F78FEF9ADD7B
:102960008FEF98DD9EDDF80182878F71853031F021
:1029700081E18583C80197DD80E001C081E00F908F
:102980000F90DF91CF911F910F91FF90EF90DF900B
:10299000CF9008950F931F93CF93DF93EC0189019C
:1029A000411551056105710511F482E12DC08B853A
:1029B000833039F089E0440F551F661F771F8A95D1
:1029C000D1F79A01AB0168E1CE01EFDD882311F068
:1029D00084E01AC0A8016EEFCE019EDF8823A9F023
:1029E00068E572E0CE01C7DD811102C085E10CC04F
:1029F00020E030E0A9016DE0CE01D7DD811103C0F8
:102A000050DD882331F084E18D83CE014CDD80E000
:102A100003C0CE0148DD81E0DF91CF911F910F917E
:102A2000089580E58093C00E1092C10E0895CF9353
:102A3000DF93EC019C012A5F3F4F41E050E060E0F2
:102A400070E08B8D9C8D0E94431E8823A1F04F89DE
:102A5000588D698D7A8D452B462B472B71F44E810D
:102A60005F81688579854F8B588F698F7A8F8C81CC
:102A700080688C8302C080E001C081E0DF91CF914B
:102A80000895CF92DF92EF92FF921F93CF93DF933F
:102A9000EC01CDDF811102C080E04AC0EB8DFC8DDE
:102AA000CE80DF80E884F98482E0C81AD108E1088A
:102AB000F108058404C0CC0CDD1CEE1CFF1C0A943C
:102AC000D2F74685578560897189C40ED51EE61EEA
:102AD000F71E148181E0C81AD108E108F10811231A
:102AE00059F0C701B601610F711D811D911D19D7E4
:102AF000882391F21150F3CFEB8DFC8DC12C82E035
:102B0000D82EE12CF12C058404C0CC0CDD1CEE1C6D
:102B1000FF1C0A94D2F74B895C896D897E894C0D24
:102B20005D1D6E1D7F1D4B8B5C8B6D8B7E8B81E0E5
:102B3000DF91CF911F91FF90EF90DF90CF9008959C
:102B4000CF93DF93EC01462F6E857F858889998925
:102B5000AFD6882341F08A8920E2829FC0011124E8
:102B60008553914F02C080E090E0DF91CF910895AE
:102B7000282FFB018BE030E231938150E9F7A22F3F
:102B8000B92F20E037E09D91992319F19E3219F079
:102B9000E4E5F1E008C03A3011F128E03AE0F3CF83
:102BA00031964917E1F044914111FACF3217B8F04C
:102BB0004FED490F4E3598F441E0420FFB01E20F13
:102BC000F11D2FE9290F2A3108F490529083242F08
:102BD000DACF81E0FB019081903209F480E0089522
:102BE0000F931F93CF93DF93EC018B018D8188238B
:102BF00011F080E03FC0FB0187898031B1F482E0B1
:102C00008D831F8A188E198E1A8E408D518D60E02B
:102C100070E095E0440F551F661F771F9A95D1F716
:102C20004B8B5C8B6D8B7E8B14C0803211F783E0F5
:102C30008D83FB01428D538D648D758D4F8B588F25
:102C4000698F7A8F9E012D5E3F4FC80112D788236E
:102C500081F21C8F0B8F81E08C831E821F8218866D
:102C600019861A861B861C861D861E861F86188A54
:102C7000198A1A8ADF91CF911F910F9108952F928F
:102C80003F924F925F926F927F928F929F92AF92FC
:102C9000BF92CF92DF92EF92FF920F931F93CF9349
:102CA000DF93EC016B015A018D81811103C08FEF1D
:102CB0009FEFD7C08C8180FFFACF4B895C896D89EB
:102CC0007E898A859B85AC85BD852501612C712C0B
:102CD0008A019B01081B190B2A0B3B0B04151505D8
:102CE0002605370518F45A01A81AB90A25011E014C
:102CF00026E0220E311C4114510409F47AC04A85A1
:102D00005B856C857D854A0181E09822ED818A0191
:102D10009B01F9E03695279517950795FA95D1F718
:102D20008B8D9C8DE23051F4FC01628D738D848D0E
:102D3000958D600F711F821F931F3DC0FC01748031
:102D40007A94702281149104C1F4711016C0452B3D
:102D5000462B472B49F48F89988DA98DBA8D8E8388
:102D60009F83A887B98709C04E815F81688579856F
:102D70009101FCD5882309F49ACFEB8DFC8D6E81EF
:102D80007F8188859985625071098109910905843F
:102D900004C0660F771F881F991F0A94D2F7068513
:102DA000178520893189600F711F821F931F670D5E
:102DB000711D811D911D20E032E028193909320171
:102DC0002415350508F439012C8126FD04C0611451
:102DD000F2E07F0699F5009154031091550320917C
:102DE000560330915703601771078207930719F450
:102DF00025C0C50136C0760183019401AB01BC0139
:102E00008091C90E9091CA0EFFDC882309F44FCF40
:102E1000C60CD71C04C0E81BF90BCE0EDF1E8A853A
:102E20009B85AC85BD85860D971DA11DB11D8A872B
:102E30009B87AC87BD87461857085DCF40E038D5E3
:102E4000882309F434CFC4018553914FD6019C01E6
:102E5000260D371DFC01E217F307E9F241914D936E
:102E6000FACFDF91CF911F910F91FF90EF90DF90FC
:102E7000CF90BF90AF909F908F907F906F905F901A
:102E80004F903F902F900895FF920F931F93CF93F1
:102E9000DF931F92CDB7DEB78C01FC0185818230B4
:102EA00018F480E090E033C0F801428553856485D2
:102EB0007585A5E07695679557954795AA95D1F7BD
:102EC000F42FFF70FF2E41E050E0BE016F5F7F4F97
:102ED000C801D5DE019719F4298130E002C02FEF37
:102EE0003FEF2F3F3F4FE9F2F8014285538564855C
:102EF0007585415E5F4F6F4F7F4F42875387648771
:102F00007587F0E2FF9EC00111248553914F0F9009
:102F1000DF91CF911F910F91FF9008954F925F9293
:102F20006F927F92AF92BF92CF92DF92EF92FF9219
:102F30000F931F93CF93DF93EC016A017B012D81E7
:102F4000222309F456C08B899C89AD89BE898417D8
:102F50009507A607B70708F44CC04DC08A859B8526
:102F6000AC85BD85EB8DFC8DE585F0E03996AC0137
:102F7000BD0141505109610971090E2E04C07695B9
:102F80006795579547950A94D2F7970186010150A6
:102F900011092109310904C0369527951795079520
:102FA000EA95D2F70417150726073707A8F58F8982
:102FB000988DA98DBA8D8E839F83A887B9872801A4
:102FC00039015E0186E0A80EB11C41145104610470
:102FD000710459F14E815F816885798595018B8DEA
:102FE0009C8DC4D491E0491A51086108710881117F
:102FF000ECCF80E01FC02230C1F0C114D104E10445
:10300000F10409F0ABCF1E821F82188619861A863A
:103010001B861C861D860DC0892B8A2B8B2B39F2B3
:10302000041B150B260B370BCACFCA86DB86EC8632
:10303000FD8681E0DF91CF911F910F91FF90EF907E
:10304000DF90CF90BF90AF907F906F905F904F9048
:1030500008950F931F93CF93DF93EC018D81882305
:10306000B9F18C8187FF2FC061E0CE0169DD8C0151
:10307000009771F18D81823048F44B895C896D89AC
:103080007E89F801448F558F668F778F4F89588DD1
:10309000698D7A8DF801538F428F758B648BE09127
:1030A000C20EF091C30E309759F0B8016A5E7F4F9F
:1030B000C80148961995F801808D918D938B828B6C
:1030C0008C818F778C83DF91CF911F910F91B7C344
:1030D00080E0DF91CF911F910F910895CF93DF93FF
:1030E000EC01B7DF882319F01D8281E001C080E088
:1030F000DF91CF9108954F925F926F927F92AF923E
:10310000BF92CF92DF92EF92FF920F931F93CF93D4
:10311000DF9300D01F92CDB7DEB75C016A017B015F
:10312000FC0185818130E9F4848181FF1AC0F501B9
:1031300083899489A589B68984179507A607B70757
:1031400080F0892B8A2B8B2B09F472C0F501428405
:10315000538464847584B701A601C501DFDE811143
:1031600002C080E066C0F501838D948DC114D10446
:10317000E104F10469F44789508D618D728D94D614
:10318000882379F3F501178A108E118E128E37C0BD
:10319000F50146815781608571859E012F5F3F4F04
:1031A000E5D38823F1F249815A816B817C81F50155
:1031B000838D948DFC012789203129F408EF1FEFBE
:1031C00020E030E004C008EF1FEF2FEF3FE0401792
:1031D00051076207730798F467D6882309F4C1CFB3
:1031E000F50146815781608571850FEF1FEF2FEF45
:1031F0003FE0838D948DA7D4882309F4B2CFF501E5
:10320000C38AD48AE58AF68A848180688483C5016A
:1032100020DF882309F4A5CFB701A6014C145D0473
:103220006E047F0410F4B301A201C50177DE01C072
:1032300081E00F900F900F900F90DF91CF911F9131
:103240000F91FF90EF90DF90CF90BF90AF907F9065
:103250006F905F904F900895FF920F931F93CF93BD
:10326000DF93EC01F42E80E2689FF0011124E55316
:10327000F14F8385817129F0842F827411F080E0F1
:1032800051C06A8B8091540390915503A0915603CD
:10329000B09157038E879F87A88BB98B4489558936
:1032A00060E070E0BA0155274427028D138D20E0BD
:1032B00030E0402B512B622B732B4F8B588F698F33
:1032C0007A8F8385887151F4048D158D268D378D05
:1032D0000B8B1C8B2D8B3E8B81E00BC0803179F6E4
:1032E0009E012D5E3F4F8B8D9C8DC3D3882339F279
:1032F00084E08D838F2D8F708C831E821F821886B1
:1033000019861A861B861C861D86F6FE0AC040E0BA
:1033100050E0BA01CE01DF91CF911F910F91FF9044
:10332000EACE81E0DF91CF911F910F91FF90089538
:10333000AF92BF92CF92DF92EF92FF920F931F93C3
:10334000CF93DF93CDB7DEB72B970FB6F894DEBFE0
:103350000FBECDBF7C016B01CA01B22EF7012581E2
:103360002111B3C0BE016F5F7F4F02DC882309F4D7
:10337000ACC0F601838D948DF701948F838FF60195
:103380001682178210861186128613861486158679
:10339000A12CF601028513852485358583899489BE
:1033A000A589B689081719072A073B07E0F545E004
:1033B00036952795179507954A95D1F70F70C60151
:1033C00063DD009709F481C0FC012081222311F004
:1033D000253EB9F4A1100EC0F701028B40915403B1
:1033E0005091550360915603709157034687578754
:1033F000608B718BFC018081AA24A3948111C9CFB9
:1034000012C04BE050E0BC01CE0101960E944F4437
:10341000892B09F0BECF8B2D8073803309F455C002
:103420004B2D602F4FC08B2D8271823109F04DC022
:10343000AA2039F061E0C70183DB8C01009771F4A9
:1034400044C0F6018581823009F43FC0C60119DB12
:103450008823D9F1F701128A0BEC1EE080E2F80113
:1034600011928A95E9F78BE0FE013196D80101901F
:103470000D928A95E1F7E091C20EF091C30E30975C
:1034800039F0B801625F7F4FC8014096199509C0B5
:1034900081E298E2F801918B808B80E098E0978739
:1034A0008687F80180899189938B828B918F808F99
:1034B00086859785978B868BC2D1882331F04B2DDB
:1034C000F7016289C701C8DE01C080E02B960FB604
:1034D000F894DEBF0FBECDBFDF91CF911F910F914A
:1034E000FF90EF90DF90CF90BF90AF9008952F9214
:1034F0003F924F925F926F927F928F929F92AF9284
:10350000BF92CF92DF92EF92FF920F931F93CF93D0
:10351000DF9300D01F921F92CDB7DEB78C017B01E5
:103520003A01DC0115968C9115978130C1F41496FF
:103530008C9181FF14C082FF1AC0F801438954891D
:103540006589768982859385A485B58584179507D5
:10355000A607B70761F0C801E1DC811108C081E06E
:1035600090E0F8019383828380E090E040C16301A2
:103570007FC0D8015B968D919C915C97FC01F48192
:10358000F150B501A40129E07695679557954795C7
:103590002A95D1F7F423FD8321E09222FF2309F439
:1035A00073C080E092E08819990956018C159D0539
:1035B00008F45C01D8015B96ED91FC915C9716963E
:1035C0002D903D904D905C901997B2E02B1A3108E8
:1035D00041085108058404C0220C331C441C551CAE
:1035E0000A94D2F786859785A089B189280E391E5D
:1035F0004A1E5B1EED812E0E311C411C511CA11474
:10360000F2E0BF0609F085C0809154039091550304
:10361000A0915603B091570382159305A405B505F3
:1036200059F48FEF9FEFDC0180935403909355037F
:10363000A0935603B09357039701B201A101809163
:10364000C90E9091CA0EA6D9882309F488CF9EEF9F
:10365000F91ACA18DB08F80182859385A485B58517
:103660008A0D9B1DA11DB11D82879387A487B587F5
:10367000D8011A968D909D90AD90BC901D97C11465
:10368000D10409F076CF86C08114910409F089CF66
:1036900016964D915D916D917C911997411551054B
:1036A0006105710559F457968D919D910D90BC91CE
:1036B000A02D0097A105B10531F520C09E012F5F17
:1036C0003F4F54D1882309F450CF89819A81AB812F
:1036D000BC81F801238D348DF9012789203129F42B
:1036E00048EF5FEF60E070E004C048EF5FEF6FEF1E
:1036F0007FE084179507A607B70728F0C80197D978
:1037000081114FCF2CCFF80186839783A087B18793
:1037100048CF8114910421F5D8011A964D915D91FD
:103720006D917C911D9753968D919D910D90BC91BB
:10373000A02D481759076A077B0790F080D088238F
:1037400009F40DCF20925403309255034092560352
:10375000509257038091C80E81608093C80E07C0B5
:1037600041E0C201B101A4D0882309F4F8CEC4011C
:103770008553914FD7019C012A0D3B1DFC01E21797
:10378000F30719F04D914193FACFE81BF90BEE0EB8
:10379000FF1E5FCF53968D919D910D90BC91A02DF2
:1037A000F801248188159905AA05BB0538F4838A98
:1037B000948AA58AB68A206824830CC08091C20EA0
:1037C0009091C30E892B31F06114710419F02068B7
:1037D000F8012483D80114968C9183FD02C0C301A3
:1037E00006C0C80136DC882309F4B9CEF8CF0F90A3
:1037F0000F900F900F900F90DF91CF911F910F912D
:10380000FF90EF90DF90CF90BF90AF909F908F9000
:103810007F906F905F904F903F902F900895CF933F
:10382000DF931F92CDB7DEB7698341E050E0BE0160
:103830006F5F7F4F5CDE0F90DF91CF910895809195
:10384000C80E882389F1409154035091550360912B
:103850005603709157032BEC3EE08091C90E909176
:10386000CA0E98D8882311F14091C40E5091C50E0C
:103870006091C60E7091C70E411551056105710525
:1038800089F02BEC3EE08091C90E9091CA0E82D84F
:10389000882361F01092C40E1092C50E1092C60ECD
:1038A0001092C70E1092C80E81E0089580E008952E
:1038B000CF92DF92EF92FF92CF936B017C01C42FE6
:1038C0008091540390915503A0915603B0915703F2
:1038D0008C159D05AE05BF05C1F0B1DF811102C099
:1038E00080E019C02BEC3EE0B701A6018091C90E23
:1038F0009091CA0E02D8882399F3C0925403D092B3
:103900005503E0925603F09257038091C80E8C2B1A
:103910008093C80E81E0CF91FF90EF90DF90CF9021
:103920000895CF92DF92EF92FF926B017C0187DFC7
:103930008823B1F0EBECFEE0119280E1EB3CF8075C
:10394000D9F7C0925403D0925503E0925603F092F7
:1039500057038091C80E81608093C80E81E001C03A
:1039600080E0FF90EF90DF90CF9008958F929F922C
:10397000AF92BF92CF92DF92EF92FF920F931F937D
:10398000CF93DF938C016A017B01E901FC01818502
:103990009285A385B4850196A11DB11D8417950755
:1039A000A607B70710F480E057C0F801438954898F
:1039B000658976898789803129F4BB27AF2D9E2DB3
:1039C0008D2D09C0D701C60127E0B695A79597951B
:1039D00087952A95D1F74C015D01840E951EA61E90
:1039E000B71EC501B4018090540390905503A09078
:1039F0005603B0905703681579058A059B0589F42D
:103A0000F8018789803191F4DD24EE24FF24F6014A
:103A1000EE0FFF1FE553F14F80819181A0E0B0E0F0
:103A200016C040E045DF8111EBCFBDCFE894C7F869
:103A3000DD24EE24FF24F601EE0FFF1FEE0FFF1F23
:103A4000E553F14F80819181A281B381BF7088835A
:103A50009983AA83BB8381E0DF91CF911F910F915E
:103A6000FF90EF90DF90CF90BF90AF909F908F909E
:103A700008954F925F926F927F92AF92BF92CF92D2
:103A8000DF92EF92FF920F931F93CF93DF9300D0BB
:103A90001F92CDB7DEB78C0149835A836B837C8339
:103AA0005901C12CD12C7601412C42E0542E612CBD
:103AB000712C49815A816B817C819E012F5F3F4F20
:103AC000C80154DF882359F1D301C201F8010584EC
:103AD00004C0880F991FAA1FBB1F0A94D2F7C80EF3
:103AE000D91EEA1EFB1E49815A816B817C81878920
:103AF000803129F488EF9FEFA0E0B0E004C088EFA8
:103B00009FEFAFEFBFE0481759076A077B0788F2BE
:103B1000F501C082D182E282F38281E001C080E0BF
:103B20000F900F900F900F90DF91CF911F910F91F9
:103B3000FF90EF90DF90CF90BF90AF907F906F900D
:103B40005F904F9008954F925F926F927F928F9205
:103B50009F92AF92BF92CF92DF92EF92FF920F931C
:103B60001F93CF93DF93EC016A017B012801390198
:103B7000423051056105710508F473C049855A85C5
:103B80006B857C854F5F5F4F6F4F7F4F4C155D0599
:103B90006E057F0508F465C08B889C88AD88BE885B
:103BA0008F89803129F477276F2D5E2D4D2D09C027
:103BB000B701A601E7E07695679557954795EA9591
:103BC000D1F7840E951EA61EB71E40915403509146
:103BD0005503609156037091570384169506A60607
:103BE000B70671F48F89803191F4DD24EE24FF242F
:103BF000F601EE0FFF1FE553F14F5182408217C0CF
:103C000040E0C501B40154DE8111ECCF2AC0E89434
:103C1000C7F8DD24EE24FF24F601EE0FFF1FEE0FA0
:103C2000FF1FE553F14F408251826282738280917F
:103C3000C80E81608093C80E8A89823080F08D81A1
:103C40009E81AF81B885880D991DAA1DBB1D8093EB
:103C5000C40E9093C50EA093C60EB093C70E81E01C
:103C600001C080E0DF91CF911F910F91FF90EF9005
:103C7000DF90CF90BF90AF909F908F907F906F908C
:103C80005F904F9008952F923F924F925F926F9264
:103C90007F929F92AF92BF92CF92DF92EF92FF926C
:103CA0000F931F93CF93DF93CDB7DEB760970FB617
:103CB000F894DEBF0FBECDBF5C014D875E876F8776
:103CC000788B1901D9014D905D906D907C904114D5
:103CD00051046104710431F0BFEF4B1A5B0A6B0AA7
:103CE0007B0A10C0FC01408051806280738099245F
:103CF00093940D851E852F85388901301105210586
:103D0000310509F0912CD50119962D913D914D91D8
:103D10005C911C972F5F3F4F4F4F5F4F29873A872A
:103D20004B875C87730162011D821E821F82188689
:103D3000F50181859285A385B4850D811E812F8132
:103D40003885081719072A073B0708F054C029854A
:103D50003A854B855C852C153D054E055F0550F475
:103D6000A2E0CA2ED12CE12CF12CB2E04B2E512C2A
:103D7000612C712C9E012F5F3F4FB701A601C50139
:103D8000F5DD8823C1F149815A816B817C81D7019E
:103D9000C6010196A11DB11D452B462B472B19F0DD
:103DA0002C013D010FC0AC01BD0144195509660944
:103DB00077090D851E852F853889401751076207C1
:103DC000730779F02D813E814F8158852F5F3F4FDA
:103DD0004F4F5F4F2D833E834F8358876C017D018A
:103DE000A7CF0FEF1FEF2FEF3FE0B701A601C501EF
:103DF000AADE811117C080E03FC0D701C60101973C
:103E0000A109B1098D839E83AF83B887970186018D
:103E1000AC01BD01C50197DE882369F3CD80DE804A
:103E2000EF80F8844C145D046E047F0430F3D101FC
:103E30004D915D916D917C91411551056105710523
:103E400099F4F1014082518262827382992099F043
:103E5000FFEF4F1A5F0A6F0A7F0AD5014D925D92FC
:103E60006D927C92139707C093018201C5016BDEAE
:103E70008111E7CFC0CF81E060960FB6F894DEBF26
:103E80000FBECDBFDF91CF911F910F91FF90EF90AB
:103E9000DF90CF90BF90AF909F907F906F905F909A
:103EA0004F903F902F900895AF92BF92CF92DF92A4
:103EB000EF92FF920F931F93CF93DF9300D01F9247
:103EC000CDB7DEB75C016A017B0182E090E0A0E043
:103ED000B0E0F50180839183A283B3839E012F5FBD
:103EE0003F4FB701A601C50141DD882309F100E07C
:103EF00010E09801B701A601C50125DE8823C1F0B5
:103F0000C980DA80EB80FC80F5018789803129F453
:103F100088EF9FEFA0E0B0E004C088EF9FEFAFEF25
:103F2000BFE0C816D906EA06FB06C0F281E001C070
:103F300080E00F900F900F900F90DF91CF911F9125
:103F40000F91FF90EF90DF90CF90BF90AF900895CA
:103F50008F929F92AF92BF92CF92DF92EF92FF9299
:103F60000F931F93CF93DF93EC01142F7093CA0E1E
:103F70006093C90E442339F1453010F080E0EDC064
:103F800040E060E070E0CB0193DC8823B9F320E1EE
:103F9000129FF0011124E758FF4E80818F7771F74F
:103FA00084859585A685B78584369105A105B105DB
:103FB00028F3C084D184E284F384C114D104E104E1
:103FC000F10421F4DBCFC12CD12C760140E0C701F4
:103FD000B6016EDC882391F28091D60E9091D70EB7
:103FE0008115924059F63091DB0E332339F28091DE
:103FF000D90E9091DA0E892B09F4C0CF2091D80EFA
:10400000222309F4BBCF3A8B2C831D8630E041E09C
:1040100050E06D85062FCA01062E02C0880F991F39
:104020000A94E2F72817390731F081E0860F8D876F
:10403000683078F3A3CF2091E10E3091E20E211584
:10404000310519F040E050E008C02091EF0E3091AA
:10405000F00E4091F10E5091F20E2D833E834F836E
:1040600058878091D90E9091DA0E46015701880E3B
:10407000991EA11CB11C8B8A9C8AAD8ABE8AE091D4
:10408000DC0EF091DD0EF98FE88FA091DB0EB0E031
:104090000E949A42680D791D8A1D9B1D6A8F7B8F35
:1040A0008C8F9D8F15E0EE0FFF1F1A95E1F7E15001
:1040B000FE4FEF2FFF27E695DC01CB018E0F9F1FF0
:1040C000A11DB11D8E879F87A88BB98B8090DE0EB6
:1040D0009090DF0E8114910419F0A12CB12C08C02E
:1040E0008090EB0E9090EC0EA090ED0EB090EE0E46
:1040F000A7019601281B390B4A0B5B0BDA01C9019A
:10410000880D991DAA1DBB1D04C0B695A79597954E
:1041100087950A95D2F789879A87AB87BC87853FB1
:104120003FE09307A105B10510F48CE014C0853F72
:104130009F4FA105B10510F480E10DC08091F70EED
:104140009091F80EA091F90EB091FA0E8A8F9B8F84
:10415000AC8FBD8F80E28F8B81E0DF91CF911F917B
:104160000F91FF90EF90DF90CF90BF90AF909F9016
:104170008F9008952F923F924F925F926F927F920D
:104180008F929F92AF92BF92CF92DF92EF92FF9267
:104190000F931F93CF93DF93CDB7DEB7CE59DF4098
:1041A0000FB6F894DEBF0FBECDBF5C016B014A01B4
:1041B000280139018E01035C104F80E4F80111924F
:1041C0008A95E9F780E090E0A0E8BFE3F8018083FA
:1041D0009183A283B383848B958BA68BB78B80A7A7
:1041E00091A7A2A7B3A784AF95AFA6AFB7AF4086FC
:1041F000518662867386448E558E668E778E9501C3
:1042000041E050E064E070E0CE018955914F0BD25F
:10421000960144E050E064E070E0CE018F5E914F83
:1042200002D2940141E050E062E070E0CE01855896
:10423000924FF9D141E050E064E070E0CE018B5143
:10424000934FC3D1980144E050E064E070E0CE01A8
:10425000815B934FE8D1005C1F4F812C912C98011A
:1042600085E0282E312CC401B1010E94434261E057
:1042700070E0892B11F060E070E0882777FD809571
:10428000982FC356D04F2883CD59DF40C256D04F08
:104290003883CE59DF400E944340F8016193719307
:1042A000819391938F01FFEF8F1A9F0AC356D04FCE
:1042B0002881CD59DF40C256D04F3881CE59DF40DA
:1042C00088E08816910479F644E050E062E070E0FE
:1042D000CE018754944FA7D1CE018754944F03D277
:1042E000970142E050E062E070E0CE018D5D944FB6
:1042F0009AD164E070E0CE018357954F23D1AE018F
:104300004955514FBE01615B734FCE018950964FA5
:10431000D2D4AE014B51534FBE016950764FCE01FE
:104320008F59964F15D3BE016F59764FCE018955DF
:10433000914FC9D4BE01615B734FCE018553974F36
:1043400017D3AE014553574FBE016F5E714FCE017B
:104350008B5C974FB0D4AE014B5C574FBE01615B95
:10436000734FCE018156984FA6D4BE016156784F47
:10437000CE018F5E914FA7D48FE79AE00E94380953
:10438000CE018955914FAFD183E89AE00E94380958
:10439000C301B2010E943D0989E89AE00E943809F0
:1043A000CE018F5E914F9FD1AE014955514FBE0155
:1043B0006754744FCE01875F984F7DD4AE01475F3D
:1043C000584FBE016558724FCE018D58994FC8D2D3
:1043D000BE016754744FCE0183529A4FC9D2AE01C9
:1043E00043525A4FBE016F5E714FCE01895B9A4FA7
:1043F00062D4AE01495B5A4FBE016754744FCE017F
:104400008F549B4F58D4AE014D5D544FBE016F5435
:104410007B4FCE01855E9B4F9BD2BE01655E7B4F7D
:10442000CE018B579C4F0E94042BAE014B575C4F23
:10443000BE01695B7A4FCE0181519D4F3CD4AE01E4
:104440004D58594FBE0161517D4FCE01875A9D4F46
:1044500032D4AE01475A5D4FBE016955714FCE014E
:104460008D539E4F75D2BE016D537E4FCE0189553F
:10447000914F29D4AE014754544FBE0161517D4F35
:10448000CE01835D9E4F17D4AE01435D5E4FBE01EA
:104490006357754FCE0189569F4F62D2AE014F5E72
:1044A000514FBE0169567F4FCE01019604D4BE0123
:1044B0006F5F7F4FCE018F5E914F05D48DE89AE0FC
:1044C0000E943809CE018D5D944F0DD181E99AE0AB
:1044D0000E943809CE0181519D4F05D18FE79AE0A6
:1044E0000E943809CE018955914FFDD089E89AE0A4
:1044F0000E943809CE018F5E914FF5D0B501CE01F3
:104500008955914FC8D0B601CE018F5E914FC3D06F
:10451000C256D04F0FB6F894DEBF0FBECDBFDF91AD
:10452000CF911F910F91FF90EF90DF90CF90BF90B0
:10453000AF909F908F907F906F905F904F903F9043
:104540002F900895EF92FF920F931F93CF93DF93D5
:104550009C011616170614F061E070E0F901EE56A2
:10456000FF4F71836083329771836083669F800100
:10457000679F100D100D1124E901E0E0F0E07B01D0
:104580008FEFE81AF80ACF01B7010E944342892B46
:1045900021F040E050E0BA0104C040E050E060E8A3
:1045A0007FE349935993699379933196E017F10723
:1045B00054F3F901EC56FF4F11821082DF91CF9135
:1045C0001F910F91FF90EF9008951416150614F0A7
:1045D00041E050E0FC01EE56FF4F518340839B01C8
:1045E0001616170614F021E030E0FC01E057FF4FEB
:1045F00031832083429FB001439F700D529F700D05
:104600001124FC0120E030E01192119211921192DC
:104610002F5F3F4F26173707BCF3FC01EC56FF4FC7
:10462000118210820895CF93DF93FA011E161F06A0
:1046300014F0E1E0F0E0DC01AE56BF4FED93FC93E7
:10464000AB011616170614F041E050E0DC01A0574C
:10465000BF4F4D935C93E49FE001E59FD00DF49F25
:10466000D00D1124F901DC0120E030E0419151919D
:10467000619171914D935D936D937D932F5F3F4F4A
:104680002C173D079CF3FC01EC56FF4F1182108262
:10469000DF91CF910895CF93DF93DC01AE56BF4FEA
:1046A000FC01E057FF4F4D915C9120813181429F89
:1046B000E001439FD00D529FD00D1124DC01FB017E
:1046C00020E030E02C173D075CF44D915D916D9139
:1046D0007D9141935193619371932F5F3F4FF2CF3F
:1046E000DF91CF910895CF92DF92EF92FF920F93D7
:1046F0001F93CF93DF93EC01C12CD12C7C0182E975
:10470000E80EF11C8E0100571F4FF7016081718187
:10471000F80120813181629FC001639F900D729FDB
:10472000900D1124C816D9069CF4C6010E9443427C
:10473000892B21F48DE39AE00E94380969917991DF
:10474000899199910E943D09EFEFCE1ADE0ADDCFE3
:10475000C6010E944342892B61F48DE39AE0DF9108
:10476000CF911F910F91FF90EF90DF90CF900C941D
:104770003809DF91CF911F910F91FF90EF90DF905B
:10478000CF9008958F929F92AF92BF92CF92DF9277
:10479000EF92FF920F931F93CF93DF93EC017B0176
:1047A0006A015B0182E9A80EB11CF50140815181CB
:1047B0008B0100571F4FF80160817181CE0105DF29
:1047C000F50120813181F601EE56FF4F8081918104
:1047D00028173907B1F4F80180819181F601E0577B
:1047E000FF4F408151818417950759F4289F40015C
:1047F000299F900C389F900C11245E0100E010E07E
:104800000CC085E99AE00E94380981E090E0FE0141
:10481000EC56FF4F918380831AC008151905BCF42C
:10482000F70161917191819191917F01F60121913F
:104830003191419151916F010E94DB3EF5016193ED
:104840007193819391935F010F5F1F4FE6CFCE016C
:10485000DF91CF911F910F91FF90EF90DF90CF905C
:10486000BF90AF909F908F9008958F929F92AF923C
:10487000BF92CF92DF92EF92FF920F931F93CF934D
:10488000DF93EC017B016A015B0182E9A80EB11C98
:10489000F501408151818B0100571F4FF801608164
:1048A0007181CE0192DEF50120813181F601EE5653
:1048B000FF4F8081918128173907B1F4F801808179
:1048C0009181F601E057FF4F408151818417950790
:1048D00059F4289F4001299F900C389F900C112477
:1048E0005E0100E010E00CC082EC9AE00E94380902
:1048F00082E090E0FE01EC56FF4F918380831AC066
:1049000008151905BCF4F70161917191819191919C
:104910007F01F60121913191419151916F010E94E6
:10492000DA3EF50161937193819391935F010F5F7B
:104930001F4FE6CFCE01DF91CF911F910F91FF90D6
:10494000EF90DF90CF90BF90AF909F908F900895A1
:10495000CF93DF93EC0116DFCE01DF91CF91089565
:10496000CF93DF93EC0181DFCE01DF91CF910895EA
:104970002F923F924F925F926F927F928F929F926F
:10498000AF92BF92CF92DF92EF92FF920F931F935D
:10499000CF93DF93CDB7DEB728970FB6F894DEBF7D
:1049A0000FBECDBF98878F838B014B0180E9880EA6
:1049B000911CF401408151817B01F2E9EF0EF11C61
:1049C000F701608171818F819885FFDDF701A080FB
:1049D000B1807501EE0CFF1CEE0CFF1CC8018E1996
:1049E0009F099A838983A0E0B0E000E010E01E8276
:1049F0001D820A151B050CF041C0F4012080318096
:104A000089819A818A0F9B1F9C838B836D817E8114
:104A1000660F771F660F771FEF81F8856E0F7F1F78
:104A200040E050E020E030E080E090E02E0D3F1DBF
:104A300082159305ACF4CB80DC80C20ED31EF60148
:104A400040805180628073806B01C40ED51EF601D8
:104A5000408251826282738201964C5F5F4FE6CF43
:104A600037FE02C0212C312C8D819E81820D931D39
:104A70009E838D830F5F1F4F1496BBCF8F819885C8
:104A800028960FB6F894DEBF0FBECDBFDF91CF9151
:104A90001F910F91FF90EF90DF90CF90BF90AF905C
:104AA0009F908F907F906F905F904F903F902F904E
:104AB00008952F923F924F925F926F927F928F92C2
:104AC0009F92AF92BF92CF92DF92EF92FF920F939D
:104AD0001F93CF93DF93CDB7DEB768970FB6F894E7
:104AE000DEBF0FBECDBF988F8F8B6B017A018A011D
:104AF0000E561F4FF801408151815B01F0E9AF0E66
:104B0000B11CF5016081718160DDF601EE56FF4F49
:104B100060807180F701E057FF4F808191816816B6
:104B20007906A1F4F5010190F081E02DFE87ED8773
:104B30009301220F331F220F331F388B2F87412CF5
:104B4000512C1A8219821E8B0D8B1EC084EF9AE0A5
:104B50000E94380983E090E0EF89F88DEC56FF4F12
:104B6000918380838DC037FE02C0212C312CE981D6
:104B7000FA81E20DF31DFA83E983FFEF4F1A5F0A12
:104B80002F853889C20ED31E8D859E8548165906FD
:104B90000CF076C0ED89FE89208031809101220FD2
:104BA000331F220F331F3A872987C701821B930BBC
:104BB0009A8B898BE981FA81EE0FFF1FEE0FFF1FA1
:104BC0002F89388DE20FF31FF887EF8300E010E0A4
:104BD0001C821B828B819C818215930524F6898916
:104BE0009A89800F911F9C8B8B8BEF81F885E00F4A
:104BF000F11FFC87EB871E821D82812C912CA12C3A
:104C0000B12C8D819E81E985FA858E0F9F1F9E8331
:104C10008D83A614B7045CF5B601680D791DAB89C8
:104C2000BC892D813E81A20FB31F2D913D914D91E5
:104C30005C91FB0160817181828193810E945C4162
:104C40009B01AC01EB85FC85608171818281938140
:104C50000E94DB3EEB85FC856083718382839383B6
:104C6000FFEFAF1ABF0A24E0820E911CCACF2B813E
:104C70003C812F5F3F4F3C832B830C5F1F4FAACF9C
:104C80008F89988D68960FB6F894DEBF0FBECDBFA2
:104C9000DF91CF911F910F91FF90EF90DF90CF9018
:104CA000BF90AF909F908F907F906F905F904F904C
:104CB0003F902F900895CF93DF93EC01FADECE0161
:104CC000DF91CF910895CF93DF93FB01E057FF4F22
:104CD00040815181FC01E057FF4F51834083FB012C
:104CE000EE56FF4F20813181FC01EE56FF4F31839C
:104CF0002083FB01EC56FF4FA081B181FC01EC56F3
:104D0000FF4FB183A083429FE001439FD00D529F8C
:104D1000D00D1124FB01DC0120E030E02C173D0711
:104D20005CF441915191619171914D935D936D93BB
:104D30007D932F5F3F4FF2CFDF91CF9108952F9258
:104D40003F924F925F926F927F928F929F92AF921B
:104D5000BF92CF92DF92EF92FF920F931F93CF9368
:104D6000DF93CDB7DEB760970FB6F894DEBF0FBE06
:104D7000CDBF2A013B01FC01EE56FF4FA080B18060
:104D8000329720813181A216B30609F079C09501CE
:104D90002F5F3F4F220F331F220F331F388B2F8778
:104DA000245031093A872987212C312C812C912CD0
:104DB00001E010E0AF85B889A80FB91FB887AF83AD
:104DC0000A151B050CF05EC0EF81F885E80DF91D92
:104DD000FC87EB872F813885220D331D3E872D8779
:104DE0001A8309831C821B821E821D82ED85FE852B
:104DF0002B813C81E20FF31F20813181428153815D
:104E0000EB85FC858D819E81E80FF91F60817181A2
:104E1000828193810E94DA3E6B017C0120E030E0C8
:104E2000A9010E94514187FF04C0C701B6019058F3
:104E300002C0C701B601A30192010E945141181698
:104E4000FCF0A981BA811196BA83A983ED81FE8114
:104E50003496FE83ED832B813C8189859A85280FCA
:104E6000391F3C832B83AA15BB0509F0BFCF0F5F09
:104E70001F4FAF85B8898A0E9B1E2A0E3B1EA0CFFE
:104E800080E001C081E060960FB6F894DEBF0FBEEF
:104E9000CDBFDF91CF911F910F91FF90EF90DF90E9
:104EA000CF90BF90AF909F908F907F906F905F90CA
:104EB0004F903F902F9008952F923F924F925F9284
:104EC0006F927F928F929F92AF92BF92CF92DF921A
:104ED000EF92FF920F931F93CF93DF93CDB7DEB77F
:104EE0006C970FB6F894DEBF0FBECDBF3C0178873C
:104EF0006F832F87388B498B5A8B8B0100571F4F3D
:104F0000D8016D917C91AB0160DB4CEA55EC67E216
:104F100077E38F81988513DF882339F1F8010190B9
:104F2000F081E02DFA83E9835F01FFEFAF1ABF0A3A
:104F3000AA0CBB1CAA0CBB1C89819A81880F991FE3
:104F4000880F991F4301881A990A95012450310945
:104F50003E872D878F8198859C878B877C826B828B
:104F60001E821D82412C512C31C08EE19BE00E949B
:104F7000380985E090E00FC020E030E0A901C701CA
:104F8000B6010E94A13F87FF75C084E39BE00E94A9
:104F9000380984E090E0F301EC56FF4F9183808361
:104FA0000FC12D813E812A0D3B1D3E832D838B81B8
:104FB0009C818A0D9B1D9C838B8394E0890E911CA0
:104FC000AB85BC85AA0DBB1DBC87AB87E981FA8187
:104FD0004E165F060CF0F4C000E010E0212C312CDE
:104FE000C12CD12C7601AD85BE850A0F1B1F421442
:104FF0005304BCF0F401E00FF11F608171818281E4
:1050000093819B01AC010E945C419B01AC01C701F3
:10501000B6010E94DB3E6B017C019FEF291A390A21
:10502000E2CFA7019601EB85FC85608171818281C9
:1050300093810E94DA3E6B017C0120E030E0A901FF
:105040000E94514187FF04C0C701B601905802C0B9
:10505000C701B6012F85388949895A890E94A13F25
:1050600087FF8ACFAB81BC811D921D921D921C923D
:1050700013970AC0C701B6010E94C941EB81FC81A8
:105080006083718382839383FFEF4F1A5F0A5A868E
:105090004986212C312C94012C5F3F4F3E8B2D8B68
:1050A0008D819E81860D971D988F8F8BAF81B885DE
:1050B000ED81FE81AE0FBF1FBA8FA98F89859A85BA
:1050C000A981BA818A179B0709F46BCF1C8E1B8EAE
:1050D00000E010E0C12CD12C7601ED89FE89E20DB3
:1050E000F31DFC8BEB8B8B8D9C8DAD85BE858A0F64
:1050F0009B1F9C8F8B8FE981FA810E171F07FCF491
:10510000EB89FC892B8D3C8DE20FF31F20813181CF
:1051100042815381EB8DFC8DE80DF91D6081718119
:10512000828193810E945C419B01AC01C701B60161
:105130000E94DB3E6B017C010F5F1F4FD4CF20E04C
:1051400030E0A901C701B6010E94514187FF04C0A8
:10515000C701B601905802C0C701B6012F85388932
:1051600049895A890E94A13F87FF03C0C12CD12CD5
:1051700076010F89188D020D131DE98DFA8DE20D50
:10518000F31DA701960164817581868197810E9434
:10519000DA3EAB81BC812D913D914D915C910E9495
:1051A000A83FF801648375838683978329853A85B0
:1051B0002F5F3F4F3A87298734E0230E311C7ECF83
:1051C000C3016C960FB6F894DEBF0FBECDBFDF9162
:1051D000CF911F910F91FF90EF90DF90CF90BF90F4
:1051E000AF909F908F907F906F905F904F903F9087
:1051F0002F9008952F923F924F925F926F927F92DD
:105200008F929F92AF92BF92CF92DF92EF92FF92D6
:105210000F931F93CF93DF93CDB7DEB7E2970FB60F
:10522000F894DEBF0FBECDBF9E838D836B018B01D3
:1052300000571F4FD8016D917C91AB01C6D9F80181
:10524000408051808201015011091A830983820133
:1052500000951095000F111F000F111F1A87098765
:10526000B20162507109649DA001659D500D749D4D
:10527000500D1124320111E0611A10EC710A640E14
:10528000751E660C771C660C771C6C0C7D1C9201DD
:105290002F5F3F4F09811A81029FC001039F900D2C
:1052A000129F900D1124880F991F880F991F860156
:1052B000080F191F18A70FA37A01E40CF51CA2E030
:1052C000B0E0A419B509A49D8001A59D100DB49D61
:1052D000100D11240E0D1F1D000F111F000F111FA7
:1052E0001C830B830C191D09AD81BE81A00FB11F5A
:1052F000BC8BAB8B0D811E81080F191F18A30F8F5C
:105300001CEF1203C001139F900D1124988F8F8BF7
:1053100004969C8F8B8F8201000F111F000F111FAD
:105320001A8F098F2D803E80201A310AF701EE0F67
:10533000FF1FEE0FFF1F2E0E3F1E440F551F440F81
:10534000551F241A350A2C183D08629F8001639F5F
:10535000100D729F100D1124000F111F000F111F4F
:105360000C0D1D1D1C870B8718861F820D811E8149
:105370000C191D0918AB0FA709811A8117FD29C146
:10538000EFA1F8A50F811885E00FF11F80809180B3
:10539000A280B38009811A812B813C81260D371DA3
:1053A0003E872D878B899C89860D971D988B8F87CB
:1053B0001A8A198AC12CD12C76010F5F1F4FE989F7
:1053C000FA893496FA8BE98B04151505ECF4EF8510
:1053D000F889A989BA89EA0FFB1F208131814281AE
:1053E0005381ED85FE85EA0FFB1F6081718182810B
:1053F00093810E945C419B01AC01C701B6010E94F0
:10540000DB3E6B017C01D9CF0F8D18A12F81388530
:10541000020F131FA501940160E070E080E89FE394
:105420000E94A83FA70196010E94DA3EA5019401BF
:105430000E94A83FD8016D937D938D939C93139701
:1054400009811A81015011091A8309838301020D10
:10545000131D1EA30DA30F8118852B853C85020FFC
:10546000131F1AA309A30B891C89060D171D1CA362
:105470000BA3C980DA801E8A1D8A1A8A198A1AAA81
:1054800019AA1E861D868301045011091CA70BA7AB
:105490000FA518A9060D171D1EA70DA73FEFC316D0
:1054A000D30609F48BC0D88ACF860DA11EA129A9E5
:1054B0003AA9020F131F1E8F0D8F00E010E0E12CA0
:1054C000F12C812C912C54018BA59CA5AD89BE8912
:1054D0008A0F9B1F9AA789A7EF85F8893196F88BC9
:1054E000EF87F4E0EF0EF11C298D3A8D020F131FA8
:1054F0008F85988984159505DCF4ED8DFE8DE00F80
:10550000F11F2081318142815381E9A5FAA5EE0D79
:10551000FF1D60817181828193810E945C419B01AA
:10552000AC01C501B4010E94DB3E4B015C01D4CF4C
:10553000C501B4019058E9A1FAA10D851E85E00FBF
:10554000F11F20813181428153810E94A83FEDA546
:10555000FEA509A91AA9E00FF11F60837183828358
:105560009383EBA1FCA109891A89E00FF11F3497FD
:10557000608371838283938311E0C11AD1080D8502
:105580001E852F89388D020F131F1E870D8709A9CD
:105590001AA92B8D3C8D020F131F1AAB09AB098979
:1055A0001A89045011091A8B098B0D891E892985C6
:1055B0003A85020F131F1E8B0D8B70CF0F8118853C
:1055C00029853A85020F131F18870F83620E731EF9
:1055D000D3CE8D819E81E2960FB6F894DEBF0FBECA
:1055E000CDBFDF91CF911F910F91FF90EF90DF9092
:1055F000CF90BF90AF909F908F907F906F905F9073
:105600004F903F902F900895CF92DF92EF92FF92AC
:105610000F931F93CF93DF93CDB7DEB7CA59D1094C
:105620000FB6F894DEBF0FBECDBF8C01FB01E05773
:10563000FF4F80819181019709F045C032968081AA
:105640009181019709F03FC0FB0180819181A28186
:10565000B381C956DF4F88839983AA83BB83C75917
:10566000D0409E0129563F4F41E050E061E070E09C
:10567000CE0101960E941323C956DF4FC880D980FE
:10568000EA80FB80C759D04020E030E0A901C70183
:10569000B6010E94A13F811109C084E090E0CB5681
:1056A000DF4F99838883C559D0401CC0A70196015C
:1056B00060E070E080E89FE30E94A83F69837A83FE
:1056C0008B839C830FC02CEA35EC47E257E3CE0175
:1056D0000196F2DBCB56DF4F88819981C559D040C6
:1056E000892B49F086E9FE013196D80101900D928F
:1056F0008A95E1F705C0BE016F5F7F4FC8017ADD73
:10570000C801C656DF4F0FB6F894DEBF0FBECDBF3F
:10571000DF91CF911F910F91FF90EF90DF90CF908D
:1057200008958091FB1090E02091FC10821B91095C
:1057300008952091FC108091FB10281750F4E22F5F
:10574000F0E0E350FF4E808190E02F5F2093FC104B
:1057500008958FEF9FEF0895E091FC108091FB106A
:10576000E81730F4F0E0E350FF4E808190E00895B8
:105770008FEF9FEF08950895CF92DF92EF92FF92FF
:105780000F931F93CF93DF937C01CB018A0120916C
:10579000D710222389F0EB016B01C40ED51ECC1566
:1057A000DD0561F06991D701ED91FC910190F081E7
:1057B000E02DC7011995F3CF642F8ED1C801DF9179
:1057C000CF911F910F91FF90EF90DF90CF900895B0
:1057D000CF93DF931F92CDB7DEB769832091D710A7
:1057E0002223D1F02091D810203240F021E030E087
:1057F000FC013383228380E090E014C08091D910B3
:10580000E82FF0E0E652FF4E998190838F5F8093FE
:10581000D9108093D81004C061E0CE0101965CD10C
:1058200081E090E00F90DF91CF910895FC01138209
:10583000128248EE53E060E070E044835583668353
:10584000778386E59BE09183808308951092FC1016
:105850001092FB101092D9101092D81080C081E0E5
:105860008093D7106093FA101092D9101092D8102C
:1058700008950F93062F21E04091D8106AED70E152
:105880008091FA10D2D01092D9101092D8101092A4
:10589000D7100F9108958F929F92AF92BF92CF929F
:1058A000DF92EF92FF920F931F93CF93DF93EC0160
:1058B000F62ED42E48015901EE2009F1D0DF1E2D1D
:1058C000143008F013E01150B8F0E881F98128E0B5
:1058D000129FB0011124A501940104C0569547956B
:1058E000379527956A95D2F7CA01B9010190F081E1
:1058F000E02DCE011995E7CF60E0CE01BADF4D2D46
:10590000413208F040E22C2D6DEF70E18F2D45D033
:105910001092FC108093FB10DF91CF911F910F919B
:10592000FF90EF90DF90CF90BF90AF909F908F90BF
:105930000895CF92EF920F931F93C22EE12C00E0B7
:1059400010E09801A8DF1F910F91EF90CF9008957C
:1059500021E0EFCF61E08DCF8BEC90E167CF10922B
:105960008A1181E0809388111092871161E084E1AF
:105970000E94303861E085E10E943038E9EBF0E0C8
:1059800080818E7F808380818D7F808388E4809377
:10599000B80085E48093BC000895413208F043C00C
:1059A00090918A119111FCCF91E090938A112093EC
:1059B00088112FEF20931D1110926211240F209354
:1059C00061119093891190918911880F892B80938F
:1059D000891180918711813061F410928711809133
:1059E00089118093BB008091BC0083FDF8CF85ECCA
:1059F00001C085EE8093BC0080918A118130E1F373
:105A000080916211841710F44091621123E631E114
:105A1000FB01D9018A2F821B841718F48D91819381
:105A2000F9CF842F089580E008950F93413208F054
:105A30004AC090918A119111FCCF92E090938A1103
:105A4000009388119FEF90931D1110926211409363
:105A50006111FB0163E671E1DB019A2F961B94173C
:105A600018F491919D93F9CF109289119091891119
:105A7000880F892B8093891180918711813061F47F
:105A800010928711809189118093BB008091BC0096
:105A900083FDF8CF85EC01C085EE8093BC00222306
:105AA00021F080918A118230E1F380911D118F3FA6
:105AB00061F080911D11803251F080911D11803371
:105AC00041F483E007C081E005C080E003C082E0CC
:105AD00001C084E00F910895613298F420918A11F9
