:1000000035C1000064C1000062C1000060C1000091
:100010005EC100005CC100005AC1000058C1000070
:1000200056C1000054C1000052C1000050C1000080
:100030004EC100004CC100004AC1000048C1000090
:1000400046C1000044C1000042C1000040C10000A0
:100050003EC100003CC100003AC100000C94DB31FD
:1000600036C100000C94E8340C941E3530C10000F9
:100070002EC100002CC100002AC1000028C10000D0
:1000800026C1000024C1000022C1000020C10000E0
:100090000C9493350C94C9351AC100005EC600005B
:1000A00016C1000014C1000012C1000010C1000000
:1000B0000EC100000CC100000AC1000008C1000010
:1000C00006C1000004C1000002C100000C943E36CD
:1000D0000C947436FCC000000C94E9360C941F3765
:1000E000F6C00000D132D432C332C732CD320B3326
:1000F000D832DC32E232E632EA32F032F432F8322E
:100100000B33FE32023306337C3C3E5E2B3D3F2FE9
:100110005B5D3B2C2A225C0000000A0B02090C0DDF
:100120000E080703040100000000000000000000AA
:1001300000000000000000000000000000000000BF
:10014000000000001211100000000000000000007C
:10015000000000000000000000000000000001029C
:1001600010202008081020401020408002010201C9
:100170000804020101020408102040808040201081
:1001800008040201800402018040201008040201DA
:100190000804020101020408102040800102040842
:1001A000102040800505050507050808080802021B
:1001B00002020A0A08080404040401010101010101
:1001C00001010303030303030303040707070C0CE4
:1001D0000C0C0C0C0C0C02020202060606060606AB
:1001E00006060B0B0B0B0B0B0B0B00002200250064
:1001F00028002B002E003100340002010000050110
:1002000008010B0100002100240027002A002D0016
:100210003000330001010000040107010A014E41D2
:100220004E494E495459494E46CDCCCC3D0AD72370
:100230003C17B7D13877CC2B329595E6241FB14FB8
:100240000A000020410000C84200401C4620BCBEFD
:100250004CCA1B0E5AAEC59D7400BE04E205E20AEC
:10026000F30D5035FB35A6365137C90411241FBE96
:10027000CFEFD1E2DEBFCDBF00E00CBF16E0A0E0C3
:10028000B2E0EAECF4E800E00BBF02C007900D9288
:10029000AA3EB107D9F72EE0AAEEB6E001C01D9242
:1002A000AC3AB207E1F712E0CAE6D2E000E006C0DD
:1002B00022970109FE010BBF0E94633CCA35D1079A
:1002C00080E00807A9F70E9495370C94544298CE15
:1002D0002EEA34E0FC0131832083089508952EEA4C
:1002E00034E0FC01318320830C94A1370F931F93DA
:1002F000CF93DF9384E00E949332EC01259683E054
:100300000E9493328C010B5F1F4F85E00E94933255
:10031000059624E630E0B9010E94023C9F938F933A
:100320007F936F93C801B9010E94023C9F938F9302
:100330007F936F93CE01B9010E94023C9F938F93EC
:100340007F936F938BE693E09F938F9382E797E081
:100350009F938F930E94073E8DB79EB740960FB62E
:10036000F8949EBF0FBE8DBF82E797E0DF91CF91DB
:100370001F910F910895CF93DF93CDB7DEB76B97A1
:100380000FB6F894DEBF0FBECDBF60E080E00E94E4
:100390000C3361E081E00E940C3360E08EE00E944B
:1003A0000C3361E08FE00E940C3360E081E10E9439
:1003B0000C3361E080E10E940C3360E083E10E9435
:1003C0000C3361E082E10E940C3361E084E00E9422
:1003D0000C3326E040EC52E160E070E089E09EE002
:1003E0000E94883426E040E855E260E070E082E355
:1003F0009CE00E94883460E084E00E94453361E024
:100400008AE00E940C3361E085E30E940C3361E0D6
:1004100086E00E940C3361E085E00E940C3360E0CE
:1004200085E00E94453360E086E00E9445336AE043
:100430008FED98E02FD781110BC067E873E082E35E
:100440009CE00E94EB3761E086E00E94453370C07B
:1004500063EA73E082E39CE00E94EB3723E144E827
:1004600052E06FED78E0CE0101960E945D0A8B812B
:100470009C819093ED078093EC078D819E81AF81E5
:10048000B8858093EE079093EF07A093F007B093A1
:10049000F10789859A85AB85BC858093F207909397
:1004A000F307A093F407B093F5078DE0FE013D96A6
:1004B000A6EFB7E001900D928A95E1F78A8D9B8DAA
:1004C00090930408809303088AEE97E0D6D6882399
:1004D00079F163E874E08AEE97E00E94EB376CE014
:1004E00072E08AEE97E00E94EB3760910A02709109
:1004F0000B028AEE97E00E94EB3760910802709140
:1005000009028AEE97E00E94E0376091080270913C
:1005100009028AEE97E00E94E0376091060270912E
:1005200007028AEE97E00E94EB378AEE97E093D6B7
:100530006B960FB6F894DEBF0FBECDBFDF91CF91A3
:100540000895CF92DF92EF92FF920F931F93CF9374
:10055000DF93EB018A016A0182E0C80ED11C42E000
:1005600050E0B60184E892E00E94DE3D42E050E0B7
:10057000B80186E892E00E94DE3D42E050E0BE0114
:1005800088E892E00E94DE3D7E0182E0E80EF11CE8
:1005900042E050E0B7018AE892E00E94DE3D64E864
:1005A00072E082E39CE00E94EB37B8016C5F7F4F02
:1005B00042E050E08CE092E00E94DE3D42E050E0FC
:1005C000B6018FE092E00E94DE3D42E050E0B801CB
:1005D00082E192E00E94DE3D42E050E0BE0185E112
:1005E00092E00E94DE3D42E050E0B70188E192E0F7
:1005F0000E94DE3DBE016C5F7F4F42E050E08BE128
:1006000092E00E94DE3DBE01695F7F4F43E050E013
:100610008EE192E0DF91CF911F910F91FF90EF90CB
:10062000DF90CF900C94DE3D4F925F926F927F925D
:100630008F929F92AF92BF92CF92DF92EF92FF92F2
:10064000CF93DF93CDB7DEB76B970FB6F894DEBFCD
:100650000FBECDBF0E9425326B017C014B015C01B6
:1006600084E6880E911CA11CB11C4CE251E060E0B4
:1006700070E08CE097E00E946521782E82E090E0A7
:100680000E940C2140912007509121076091220780
:10069000709123078091FE069091FF06A0910007BC
:1006A000B0910107481B590B6A0B7B0B5F934F936B
:1006B0008DB79EB782970FB6F8949EBF0FBE8DBFC1
:1006C000ADB7BEB7119682E2ECE0F7E001900D9273
:1006D0008A95E1F78AEE96E00E94291E8091200714
:1006E00090912107A0912207B09123078093FE06E5
:1006F0009093FF06A0930007B09301070FB6F894FC
:10070000DEBF0FBECDBF8EE297E00E94CB2280916C
:10071000F2069091F306A091F406B091F50680934D
:10072000400790934107A0934207B09343078091FD
:10073000F6069091F706A091F806B091F90680931D
:10074000440790934507A0934607B093470783E07B
:1007500090E090932F0780932E0780E597E00E940A
:10076000CB2260E577E08CE69DE00E9485248091B5
:10077000500790915107029781F48091560790910C
:100780005707A0915807B091590780933407909369
:100790003507A0933607B09337076EE277E08CE613
:1007A0009DE00E94F22423E144E852E06FED78E0FE
:1007B000CE01019682D68B819C819093ED07809328
:1007C000EC078D819E81AF81B8858093EE07909371
:1007D000EF07A093F007B093F10789859A85AB8561
:1007E000BC858093F2079093F307A093F407B0932E
:1007F000F5078DE0FE013D96A6EFB7E001900D9262
:100800008A95E1F78A8D9B8D909304088093030865
:10081000772009F43FC061E085E00E9445338CE019
:1008200097E00E943D1D3C018AEE97E026D5882383
:1008300029F0B3018AEE97E00E94E037B30182E32A
:100840009CE00E94E0378AEE96E00E943D1D3C014C
:100850008AEE97E012D5882329F0B3018AEE97E05B
:100860000E94E037B30182E39CE00E94E037B301CD
:1008700089E09EE00E94E03739DD3C018AEE97E096
:10088000FCD4882329F0B3018AEE97E00E94E03778
:10089000B30106C060E085E00E94453366EB73E07B
:1008A00082E39CE00E94E0370E9425329B01AC016C
:1008B0002C193D094E095F09A4E6B0E00E94593C9D
:1008C00024E630E040E050E00E94153C29013A0166
:1008D0008AEE97E0D2D4882339F04AE050E0B201A2
:1008E0008AEE97E00E948F384AE050E0B20182E33E
:1008F0009CE00E948F388AEE97E0BFD4882341F0B5
:1009000060E086E00E9445338AEE97E0A4D404C0FC
:1009100061E086E00E944533C814D904EA04FB0470
:1009200028F40E9425326B017C01F6CF6B960FB63E
:10093000F894DEBF0FBECDBFDF91CF91FF90EF9057
:10094000DF90CF90BF90AF909F908F907F906F90EF
:100950005F904F900895BC0182E39CE00C94E037D7
:10096000AB01BC0122E030E082E39CE00E947C39D4
:1009700068EC73E082E39CE00C94E0374BE658EDC2
:1009800064E170E085E098E00E94F4198AEE97E057
:1009900002C48EEA94E090930608809305080895B7
:1009A00080914B0890E020914C08821B910908959A
:1009B00020914C0880914B08281750F4E22FF0E06A
:1009C000E35BF74F808190E02F5F20934C08089500
:1009D0008FEF9FEF0895E0914C0880914B08E81746
:1009E00030F4F0E0E35BF74F808190E008958FEF03
:1009F0009FEF08950895CF92DF92EF92FF920F93A9
:100A00001F93CF93DF937C01CB018A0120912708AC
:100A1000222389F0EB016B01C40ED51ECC15DD0538
:100A200061F06991D701ED91FC910190F081E02D89
:100A3000C7011995F3CF642F67D1C801DF91CF911A
:100A40001F910F91FF90EF90DF90CF900895CF937B
:100A5000DF931F92CDB7DEB7698320912708222349
:100A6000D1F020912808203240F021E030E0FC0154
:100A70003383228380E090E014C080912908E82F1E
:100A8000F0E0E65DF74F998190838F5F80932908AE
:100A90008093280804C061E0CE01019635D181E041
:100AA00090E00F90DF91CF910895FC0113821282A4
:100AB00048EE53E060E070E04483558366837783BB
:100AC0008CEB94E091838083089581E080932708E4
:100AD00060934A08109229081092280808950F93ED
:100AE000062F21E0409128086AE278E080914A08C8
:100AF000B4D01092290810922808109227080F915C
:100B000008958F929F92AF92BF92CF92DF92EF9211
:100B1000FF920F931F93CF93DF93EC01F62ED42E09
:100B200048015901EE2009F1D0DF1E2D143008F0E4
:100B300013E01150B8F0E881F98128E0129FB0016C
:100B40001124A501940104C0569547953795279522
:100B50006A95D2F7CA01B9010190F081E02DCE016A
:100B60001995E7CF60E0CE01BADF4D2D413208F094
:100B700040E22C2D6DE478E08F2D27D010924C08A8
:100B800080934B08DF91CF911F910F91FF90EF90D1
:100B9000DF90CF90BF90AF909F908F900895CF92AD
:100BA000EF920F931F93C22EE12C00E010E098010A
:100BB000A8DF1F910F91EF90CF90089521E0EFCF24
:100BC00061E08DCF8BE198E070CF413208F043C0F7
:100BD0009091DA089111FCCF91E09093DA0820937C
:100BE000D8082FEF20936D081092B208240F20939D
:100BF000B1089093D9089091D908880F892B8093D8
:100C0000D9088091D708813061F41092D70880917B
:100C1000D9088093BB008091BC0083FDF8CF85ECA0
:100C200001C085EE8093BC008091DA088130E1F349
:100C30008091B208841710F44091B20823EB38E099
:100C4000FB01D9018A2F821B841718F48D9181939F
:100C5000F9CF842F089580E008950F93413208F072
:100C60004AC09091DA089111FCCF92E09093DA0893
:100C70000093D8089FEF90936D081092B2084093AC
:100C8000B108FB0163EB78E0DB019A2F961B941708
:100C900018F491919D93F9CF1092D9089091D908A9
:100CA000880F892B8093D9088091D708813061F40F
:100CB0001092D7088091D9088093BB008091BC0026
:100CC00083FDF8CF85EC01C085EE8093BC00222324
:100CD00021F08091DA088230E1F380916D088F3F36
:100CE00061F080916D08803251F080916D08803301
:100CF00041F483E007C081E005C080E003C082E0EA
:100D000001C084E00F910895613298F42091DA08CF
:100D1000243089F460938F08FC0181E998E0DC01BC
:100D20002A2F281B261718F421912D93F9CF80E044
:100D3000089581E0089582E0089585ED8093BC00D8
:100D40008091BC0084FDFCCF1092DA08089585ECF8
:100D50008093BC001092DA0808951F920F920FB68C
:100D60000F9211240BB60F922F933F934F935F93E3
:100D70006F937F938F939F93AF93BF93EF93FF9363
:100D80008091B900887F803609F49DC070F5883263
:100D900009F45CC090F4803109F455C038F488231C
:100DA00009F4F3C0883009F44EC0F2C0883109F468
:100DB0004DC0803209F45EC0EBC0803409F469C0D4
:100DC00050F4803309F456C0883309F0E1C08093B1
:100DD0006D08BDDFDDC0803509F44FC0883509F4EA
:100DE0005DC0883409F0D4C0D2C0883909F4C3C0CA
:100DF000A8F4883709F467C038F4883609F463C06A
:100E0000803709F460C0C4C0883809F4B4C08039A0
:100E100009F45FC0803809F0BBC05BC0803B09F4B7
:100E200082C038F4803A09F466C0883A09F47BC07D
:100E3000AFC0803C09F4A3C0883C09F4A0C0883B43
:100E400009F486C0A5C08091D90810C09091B2085D
:100E50008091B108981770F5E091B20881E08E0F8B
:100E60008093B208F0E0ED54F74F80818093BB008F
:100E700085EC82C080936D088AC0E091B20881E061
:100E80008E0F8093B2088091BB00F0E0ED54F74FD5
:100E900080839091B2088091B1086AC0E091B20855
:100EA00081E08E0F8093B2088091BB00F0E0ED549A
:100EB000F74F80838091D808811169C081E08093C9
:100EC000D70884EA5DC083E08093DA0810926E0848
:100ED000CFCF80916E08803208F04DC0E0916E084F
:100EE00081E08E0F80936E088091BB00F0E0E159A5
:100EF000F74F8083BDCF2BDF80916E08803230F4B6
:100F0000E0916E08F0E0E159F74F108260916E08B1
:100F100070E0E091D308F091D4088FE698E019953D
:100F200010926E0835C084E08093DA081092900821
:100F300010928F08E091D508F091D608199580910C
:100F40008F08811105C081E080938F08109291086D
:100F5000E091900881E08E0F80939008F0E0EF56CA
:100F6000F74F80818093BB009091900880918F080B
:100F7000981708F47DCF85E88093BC0009C085EC04
:100F80008093BC001092DA0803C010926D08D5DE81
:100F9000FF91EF91BF91AF919F918F917F916F9151
:100FA0005F914F913F912F910F900BBE0F900FBE0D
:100FB0000F901F901895CF93CFB7F8948091DE08CB
:100FC000811127C0E9EDF1E08491E3E9F1E094912A
:100FD000E82FF0E0EE0FFF1FEC5FFD4FA591B491FD
:100FE0008C91892321F461E085E30E94453361E01F
:100FF00085E30E940C338CB580618CBD8CB5806418
:101000008CBD61E084E30E940C3361E083E30E94C5
:101010000C338091DE088F5F8093DE08CFBFCF91C5
:101020000895CF93DF931F92CDB7DEB76983DC01BC
:10103000ED91FC910280F381E02D41E050E0BE0192
:101040006F5F7F4F19950F90DF91CF910895CF93E8
:10105000DF93EC01898D9A8D009759F0FC01138282
:1010600012820E945913E98DFA8D22813381232B3C
:1010700031F081E090E09B838A8380E090E0DF9113
:10108000CF910895FC01818D928D009711F00C9401
:101090000B110895CF93DF931F92CDB7DEB741E0D8
:1010A00050E0BE016F5F7F4FCCD6019719F4898164
:1010B00090E002C08FEF9FEF0F90DF91CF910895E6
:1010C000FC01818D928D009709F0E4CF8FEF9FEFA7
:1010D00008950F931F93CF93DF938C01FC01818DB3
:1010E000928D0097A9F0D6DFEC018F3FFFEF9F07AD
:1010F00091F0F801818D928DFC01428553856485C4
:1011000075854150510961097109EAD7CE0105C0C1
:1011100080E090E002C08FEF9FEFDF91CF911F91B1
:101120000F910895CF92DF92EF92FF920F931F934A
:10113000CF93DF93EC017B016A011B821A8208EED8
:1011400013E020E030E00C831D832E833F838CEC82
:1011500094E0998388838DE190E00E948A3C9A8F85
:10116000898F009779F02DE1F701DC0101900D9254
:101170002A95E1F74CE050E0B601CE010C960E94B2
:10118000DE3D188EDF91CF911F910F91FF90EF9070
:10119000DF90CF900895FC011382128248EE53E055
:1011A00060E070E044835583668377838CEC94E041
:1011B00091838083128E118E14860895DC015996D6
:1011C000ED91FC915A97309729F06285738584855B
:1011D000958508956FEF7FEFCB010895DC01599657
:1011E000ED91FC915A97309729F06389748985892C
:1011F0009689089560E070E0CB010895CF92DF9268
:10120000EF92FF92CF93DF93EC01898D9A8D892B1A
:10121000C9F0CE01E3DF6B017C01CE01CFDFA70176
:101220009601261B370B480B590BDA01C9018115B2
:1012300030E89307A105B10538F08FEF9FE7A0E0F4
:10124000B0E002C080E090E0DF91CF91FF90EF909E
:10125000DF90CF900895CF93DF93EC01898D9A8D25
:10126000009741F00E945011898D9A8D0E94223D75
:101270001A8E198EDF91CF910895DC015996ED9168
:10128000FC915A97309721F081E09581911101C02E
:1012900080E008950F931F93CF93DF93EC01462FC7
:1012A00061E0C0D2811102C080E01CC08E01045FE9
:1012B0001F4F41E0BE01C8010E948A18882351F0E7
:1012C000B801CE018A966ED591E0811101C090E0FF
:1012D000892F08C040E0BE01C8010E948A188823F7
:1012E00019F3EECFDF91CF911F910F910895FC017B
:1012F000DB0112968D919C911397938382838EEDDF
:1013000094E09183808314968C911497848315962E
:101310008C911597858316964D915D916D917C9179
:10132000199746835783608771871A964D915D910F
:101330006D917C911D9742875387648775871E96B0
:101340004D915D916D917C91519746875787608B48
:10135000718B52968C915297828B53964D915D91E1
:101360006D917C915697438B548B658B768B5796FA
:101370004D915D916D917C915A97478B508F618F04
:10138000728F5B968D919C915C97948F838F08955B
:101390004F925F926F927F928F929F92AF92BF9285
:1013A000CF92DF92EF92FF920F931F93CF93DF9331
:1013B000CDB7DEB7C754D1090FB6F894DEBF0FBE64
:1013C000CDBF6C014A013901665D7F4F5E018EE140
:1013D000A80EB11CC5018BDF1C821B828EED94E030
:1013E0009A8389831E828401FE0131967F015A2CE3
:1013F0004B2C6FE270E0C8010E94C53D0097D9F107
:10140000F80120812F3219F40F5F1F4FF2CF801B9C
:101410008D3008F08CE0A82EB12CA501B801CE01CA
:10142000CB960E94DE3DEBE3F0E0EC0FFD1FEA0DF2
:10143000FB1D1082C70134D721E0AE01455C5F4F30
:10144000652D742DC7010E947A12811109C0F60121
:10145000138212828EED94E091838083158214C0F2
:101460000A0D1B1D852D942D1BD7C2015E2C4F2C00
:10147000E92EF82EBECF08191909F3011183008354
:10148000652D742DC60133DFC601C95BDF4F0FB672
:10149000F894DEBF0FBECDBFDF91CF911F910F91AA
:1014A000FF90EF90DF90CF90BF90AF909F908F9084
:1014B0007F906F905F904F9008959F92AF92BF92F0
:1014C000CF92DF92EF92FF920F931F93CF93DF9310
:1014D000CDB7DEB7C955D1090FB6F894DEBF0FBE40
:1014E000CDBF7C016B015A01922E9E01285A3F4FBD
:1014F000CE01CB964DDF6A960EAD1FAD6A970A0DF1
:101500001B1DF8018081811109C0BE01655C7F4F00
:10151000CE010196ECDE48ED54E03BC019A218A2C2
:101520008EED94E09F8F8E8F1BA221968FAD219719
:10153000811103C0C7012FDE31C08250823058F4C0
:10154000B601665D7F4F292DA801CE014E96D2D7F8
:1015500081110EC0EFCF292DA801BE01655C7F4F20
:10156000CE014E96C7D7882329F3CE01CB9698D6C5
:10157000892D867039F049A95AA96BA97CA9CE0199
:101580004E96AED5BE01625E7F4FCE010196AFDEB4
:10159000A801BE016F5F7F4FC701C4DDC701C75AF5
:1015A000DF4F0FB6F894DEBF0FBECDBFDF91CF91F6
:1015B0001F910F91FF90EF90DF90CF90BF90AF9071
:1015C0009F9008951092E4081092E5081092E808A0
:1015D0001092EA0882E090E0A0E0B0E08093EB088F
:1015E0009093EC08A093ED08B093EE0810920209D6
:1015F00010920C0910920B098EED94E090930A0959
:101600008093090910920E0908959FB7F8942091CC
:10161000DD088091DB08213019F48DBB9FBF089550
:101620008FBF08952091DD08222399F03FB7F894E9
:101630002091DD08213059F42DB32093DB084DB300
:101640002091DC08209524232DBB3FBF02C030939E
:10165000DB088CBD9DBD08958EBD00000DB407FE56
:10166000FDCF8EB508958FEFF7CF61E0FC01848147
:101670000E94453380912809882331F0109228096F
:101680008091DD088111C1CF0895CF93DF93EC01E4
:1016900080912809811108C081E0809328098091F8
:1016A000290990912A09BEDF60E08C81DF91CF91FA
:1016B0000C944533CF93DF93EC018E81882379F02E
:1016C0008F8198859C012F5F3F4F38872F83823011
:1016D000924010F4C8DFF4CFCE01C7DF1E82DF9145
:1016E000CF910895673028F026E1FC01258380E042
:1016F0000895623081F030F4662359F06130B1F41E
:1017000080E515C0643059F040F0653079F482E529
:101710000EC080E505C081E503C081E508C082E513
:101720008093290981E080932A09089583E58093B5
:10173000290910922A0981E008950F931F93CF93EE
:10174000DF93EB010E9425328B018DDF8F3F49F043
:101750000E942532601B710B6C177D07B0F380E08F
:1017600001C081E0DF91CF911F910F910895CF9239
:10177000DF92FF920F931F93CF93DF9300D01F92BE
:10178000CDB7DEB76C01F62E29833A834B835C8399
:1017900091DFC6017ADF6CE271E0C601CEDF8F2DEA
:1017A00080645ADF08E110E05C814B813A81298135
:1017B000DA01C901002E04C0B695A79597958795C3
:1017C0000A94D2F729833A834B835C8345DF085020
:1017D000110929813A814B815C81083F8FEF1807FD
:1017E00039F7FF2029F0E8E0FE1621F08FEF03C063
:1017F00085E901C087E830DF10E035DFF601828738
:1018000087FF04C01F3F11F01F5FF7CF0F900F90AD
:101810000F900F90DF91CF911F910F91FF90DF906C
:10182000CF900895BF92CF92DF92EF92FF920F93E5
:101830001F93CF93DF93EC01B62E1B8619861E8271
:101840001D824C830E9425328B0161E08C810E94B5
:101850000C3361E08C810E944533ADDB82E58093DF
:10186000290910922A098091290990912A09DADE22
:101870002AE0F22E8FEFF0DEFA94E1F78091DD0896
:101880008111C3DECE0101DF20E030E0A90160E07C
:10189000CE016DDFF82E8A8781E0F81649F00E94AC
:1018A0002532601B710B613D774070F381E046C0CB
:1018B0002AEA31E040E050E068E0CE0158DF82FFE4
:1018C00002C0FB860CC094E0F92ECDDE8A87FA9424
:1018D000E1F78A3A11F082E031C082E08B878B8594
:1018E000823031F4C12CD12CE12C80E4F82E03C0DD
:1018F000C12CD12C760120E030E0A90167E3CE01B4
:1019000036DFA701960169E2CE0131DF8A8788239D
:1019100049F00E942532601B710B613D774058F3FE
:1019200088E00CC08B85823001F520E030E0A90111
:101930006AE3CE011CDF882379F086E08D83CE0137
:1019400094DE80E0DF91CF911F910F91FF90EF9097
:10195000DF90CF90BF90089586DE807C803C11F4AC
:1019600083E08B8780DE7FDE7EDECE017EDE6B2D28
:10197000CE01DF91CF911F910F91FF90EF90DF90FB
:10198000CF90BF90AFCE0F931F93CF93DF93EC0117
:101990000E9425328B0167DE8A878F3F49F40E94BF
:1019A0002532601B710B6D327140A8F38FE003C0CC
:1019B0008E3F31F08DE08D83CE0157DE80E001C097
:1019C00081E0DF91CF911F910F910895CF92DF9227
:1019D000EF92FF920F931F93CF93DF93EC01690176
:1019E0000115110509F45DC0C801820F931F8130F4
:1019F000924008F058C08E81882371F088819981C7
:101A0000AA81BB81481759076A077B0729F48F8190
:101A10009885C816D90600F5488359836A837B8365
:101A20008B85833039F039E0440F551F661F771FCF
:101A30003A95D1F79A01AB0161E1CE0198DE882396
:101A400019F083E08D832FC0CE019DDF882359F1EB
:101A500018861F8281E08E838F8198858C159D0565
:101A600038F401DE8F819885019698878F83F4CFB3
:101A70006701E00EF11ECE14DF0429F0F4DDF6015B
:101A800081936F01F8CF8F819885800F911F988780
:101A90008F832985222319F08115924010F0CE0101
:101AA00009DE81E003C0CE01E0DD80E0DF91CF916F
:101AB0001F910F91FF90EF90DF90CF900895EF92DC
:101AC000FF920F931F93790100E012E020E030E0D5
:101AD0007DDF1F910F91FF90EF900895CF92DF92DD
:101AE000EF92FF920F931F93CF93DF931F921F925A
:101AF000CDB7DEB78C01862F49835A83ADDD49818E
:101B0000C42E5A81D52EE12CF12CF60181916F0162
:101B1000A3DDFFEFEF1AFF0AE11482E0F806A9F750
:101B20008FEF9ADD8FEF98DD9EDDF80182878F7150
:101B3000853031F081E18583C80197DD80E001C007
:101B400081E00F900F90DF91CF911F910F91FF9047
:101B5000EF90DF90CF9008950F931F93CF93DF9373
:101B6000EC018901411551056105710511F482E10E
:101B70002DC08B85833039F089E0440F551F661FD7
:101B8000771F8A95D1F79A01AB0168E1CE01EFDDAD
:101B9000882311F084E01AC0A8016EEFCE019EDF09
:101BA0008823A9F068E572E0CE01C7DD811102C08B
:101BB00085E10CC020E030E0A9016DE0CE01D7DD69
:101BC000811103C050DD882331F084E18D83CE0183
:101BD0004CDD80E003C0CE0148DD81E0DF91CF9194
:101BE0001F910F91089580E58093290910922A0989
:101BF0000895CF93DF93EC019C012A5F3F4F41E0B2
:101C000050E060E070E08B8D9C8D0E94251788234A
:101C1000A1F04F89588D698D7A8D452B462B472B26
:101C200071F44E815F81688579854F8B588F698FFC
:101C30007A8F8C8180688C8302C080E001C081E053
:101C4000DF91CF910895CF92DF92EF92FF921F9391
:101C5000CF93DF93EC01CDDF811102C080E04AC059
:101C6000EB8DFC8DCE80DF80E884F98482E0C81A99
:101C7000D108E108F108058404C0CC0CDD1CEE1C81
:101C8000FF1C0A94D2F74685578560897189C40E76
:101C9000D51EE61EF71E148181E0C81AD108E1089E
:101CA000F108112359F0C701B601610F711D811DA3
:101CB000911D19D7882391F21150F3CFEB8DFC8D34
:101CC000C12C82E0D82EE12CF12C058404C0CC0C70
:101CD000DD1CEE1CFF1C0A94D2F74B895C896D89D0
:101CE0007E894C0D5D1D6E1D7F1D4B8B5C8B6D8B3E
:101CF0007E8B81E0DF91CF911F91FF90EF90DF907D
:101D0000CF900895CF93DF93EC01462F6E857F85AA
:101D100088899989AFD6882341F08A8920E2829FF9
:101D2000C00111248C5C964F02C080E090E0DF91EE
:101D3000CF910895282FFB018BE030E23193815041
:101D4000E9F7A22FB92F20E037E09D91992319F1EF
:101D50009E3219F0E8E0F1E008C03A3011F128E0D5
:101D60003AE0F3CF31964917E1F044914111FACFAF
:101D70003217B8F04FED490F4E3598F441E0420F5D
:101D8000FB01E20FF11D2FE9290F2A3108F49052CF
:101D90009083242FDACF81E0FB019081903209F407
:101DA00080E008950F931F93CF93DF93EC018B0195
:101DB0008D81882311F080E03FC0FB01878980314D
:101DC000B1F482E08D831F8A188E198E1A8E408D91
:101DD000518D60E070E095E0440F551F661F771F3E
:101DE0009A95D1F74B8B5C8B6D8B7E8B14C08032B8
:101DF00011F783E08D83FB01428D538D648D758DCA
:101E00004F8B588F698F7A8F9E012D5E3F4FC8018F
:101E100012D7882381F21C8F0B8F81E08C831E8266
:101E20001F82188619861A861B861C861D861E86AA
:101E30001F86188A198A1A8ADF91CF911F910F91F4
:101E400008952F923F924F925F926F927F928F925E
:101E50009F92AF92BF92CF92DF92EF92FF920F9339
:101E60001F93CF93DF93EC016B015A018D81811198
:101E700003C08FEF9FEFD7C08C8180FFFACF4B89D3
:101E80005C896D897E898A859B85AC85BD852501A8
:101E9000612C712C8A019B01081B190B2A0B3B0B2F
:101EA000041515052605370518F45A01A81AB90AAC
:101EB00025011E0126E0220E311C4114510409F4B3
:101EC0007AC04A855B856C857D854A0181E09822D0
:101ED000ED818A019B01F9E03695279517950795C5
:101EE000FA95D1F78B8D9C8DE23051F4FC01628D17
:101EF000738D848D958D600F711F821F931F3DC060
:101F0000FC0174807A94702281149104C1F47110E0
:101F100016C0452B462B472B49F48F89988DA98DE8
:101F2000BA8D8E839F83A887B98709C04E815F8150
:101F3000688579859101FCD5882309F49ACFEB8DCA
:101F4000FC8D6E817F818885998562507109810938
:101F50009109058404C0660F771F881F991F0A9492
:101F6000D2F70685178520893189600F711F821F7E
:101F7000931F670D711D811D911D20E032E028190E
:101F8000390932012415350508F439012C8126FD63
:101F900004C06114F2E07F0699F50091FC021091F3
:101FA000FD022091FE023091FF0260177107820747
:101FB000930719F425C0C50136C076018301940149
:101FC000AB01BC018091320990913309FFDC882379
:101FD00009F44FCFC60CD71C04C0E81BF90BCE0E7A
:101FE000DF1E8A859B85AC85BD85860D971DA11D4D
:101FF000B11D8A879B87AC87BD87461857085DCF80
:1020000040E038D5882309F434CFC4018C5C964F66
:10201000D6019C01260D371DFC01E217F307E9F2FA
:1020200041914D93FACFDF91CF911F910F91FF9086
:10203000EF90DF90CF90BF90AF909F908F907F9068
:102040006F905F904F903F902F900895FF920F9365
:102050001F93CF93DF931F92CDB7DEB78C01FC01A6
:102060008581823018F480E090E033C0F801428529
:10207000538564857585A5E0769567955795479551
:10208000AA95D1F7F42FFF70FF2E41E050E0BE017A
:102090006F5F7F4FC801D5DE019719F4298130E0C9
:1020A00002C02FEF3FEF2F3F3F4FE9F2F80142858B
:1020B000538564857585415E5F4F6F4F7F4F4287C3
:1020C000538764877587F0E2FF9EC00111248C5C02
:1020D000964F0F90DF91CF911F910F91FF90089530
:1020E0004F925F926F927F92AF92BF92CF92DF92A8
:1020F000EF92FF920F931F93CF93DF93EC016A014E
:102100007B012D81222309F456C08B899C89AD89DE
:10211000BE8984179507A607B70708F44CC04DC0C1
:102120008A859B85AC85BD85EB8DFC8DE585F0E0D2
:102130003996AC01BD0141505109610971090E2E5A
:1021400004C076956795579547950A94D2F79701FD
:102150008601015011092109310904C036952795DE
:1021600017950795EA95D2F704171507260737073D
:10217000A8F58F89988DA98DBA8D8E839F83A887A6
:10218000B987280139015E0186E0A80EB11C41140F
:1021900051046104710459F14E815F81688579852C
:1021A00095018B8D9C8DC4D491E0491A510861082A
:1021B00071088111ECCF80E01FC02230C1F0C11442
:1021C000D104E104F10409F0ABCF1E821F8218860E
:1021D00019861A861B861C861D860DC0892B8A2BA4
:1021E0008B2B39F2041B150B260B370BCACFCA8673
:1021F000DB86EC86FD8681E0DF91CF911F910F9108
:10220000FF90EF90DF90CF90BF90AF907F906F9056
:102210005F904F9008950F931F93CF93DF93EC013E
:102220008D818823B9F18C8187FF2FC061E0CE01B9
:1022300069DD8C01009771F18D81823048F44B8902
:102240005C896D897E89F801448F558F668F778F01
:102250004F89588D698D7A8DF801538F428F758B18
:10226000648BE0912B09F0912C09309759F0B8015B
:102270006A5E7F4FC80148961995F801808D918D4F
:10228000938B828B8C818F778C83DF91CF911F9181
:102290000F91B7C380E0DF91CF911F910F91089507
:1022A000CF93DF93EC01B7DF882319F01D8281E023
:1022B00001C080E0DF91CF9108954F925F926F92BD
:1022C0007F92AF92BF92CF92DF92EF92FF920F93E5
:1022D0001F93CF93DF9300D01F92CDB7DEB75C0181
:1022E0006A017B01FC0185818130E9F4848181FFF1
:1022F0001AC0F50183899489A589B6898417950741
:10230000A607B70780F0892B8A2B8B2B09F472C0A4
:10231000F5014284538464847584B701A601C50124
:10232000DFDE811102C080E066C0F501838D948DEF
:10233000C114D104E104F10469F44789508D618D21
:10234000728D94D6882379F3F501178A108E118E39
:10235000128E37C0F50146815781608571859E01D7
:102360002F5F3F4FE5D38823F1F249815A816B817A
:102370007C81F501838D948DFC012789203129F41E
:1023800008EF1FEF20E030E004C008EF1FEF2FEF51
:102390003FE0401751076207730798F467D6882318
:1023A00009F4C1CFF50146815781608571850FEF32
:1023B0001FEF2FEF3FE0838D948DA7D4882309F47E
:1023C000B2CFF501C38AD48AE58AF68A848180680F
:1023D0008483C50120DF882309F4A5CFB701A601B6
:1023E0004C145D046E047F0410F4B301A201C50116
:1023F00077DE01C081E00F900F900F900F90DF917A
:10240000CF911F910F91FF90EF90DF90CF90BF90F1
:10241000AF907F906F905F904F900895FF920F93D1
:102420001F93CF93DF93EC01F42E80E2689FF001BD
:102430001124EC5CF64F8385817129F0842F82741E
:1024400011F080E051C06A8B8091FC029091FD02F6
:10245000A091FE02B091FF028E879F87A88BB98B57
:102460004489558960E070E0BA0155274427028D00
:10247000138D20E030E0402B512B622B732B4F8BC0
:10248000588F698F7A8F8385887151F4048D158DEB
:10249000268D378D0B8B1C8B2D8B3E8B81E00BC0DB
:1024A000803179F69E012D5E3F4F8B8D9C8DC3D37D
:1024B000882339F284E08D838F2D8F708C831E8268
:1024C0001F82188619861A861B861C861D86F6FEB4
:1024D0000AC040E050E0BA01CE01DF91CF911F91D8
:1024E0000F91FF90EACE81E0DF91CF911F910F9184
:1024F000FF900895AF92BF92CF92DF92EF92FF923A
:102500000F931F93CF93DF93CDB7DEB72B970FB603
:10251000F894DEBF0FBECDBF7C016B01CA01B22EA5
:10252000F70125812111B3C0BE016F5F7F4F02DC2F
:10253000882309F4ACC0F601838D948DF701948F44
:10254000838FF601168217821086118612861386F3
:1025500014861586A12CF601028513852485358500
:1025600083899489A589B689081719072A073B0723
:10257000E0F545E036952795179507954A95D1F7EB
:102580000F70C60163DD009709F481C0FC01208152
:10259000222311F0253EB9F4A1100EC0F701028BE1
:1025A0004091FC025091FD026091FE027091FF0289
:1025B00046875787608B718BFC018081AA24A39486
:1025C0008111C9CF12C04BE050E0BC01CE01019691
:1025D0000E94B83D892B09F0BECF8B2D80738033CC
:1025E00009F455C04B2D602F4FC08B2D8271823165
:1025F00009F04DC0AA2039F061E0C70183DB8C01EE
:10260000009771F444C0F6018581823009F43FC01F
:10261000C60119DB8823D9F1F701128A04E319E016
:1026200080E2F80111928A95E9F78BE0FE0131967C
:10263000D80101900D928A95E1F7E0912B09F09174
:102640002C09309739F0B801625F7F4FC80140967E
:10265000199509C081E298E2F801918B808B80E0A6
:1026600098E097878687F80180899189938B828B80
:10267000918F808F86859785978B868BC2D1882393
:1026800031F04B2DF7016289C701C8DE01C080E03F
:102690002B960FB6F894DEBF0FBECDBFDF91CF9162
:1026A0001F910F91FF90EF90DF90CF90BF90AF9070
:1026B00008952F923F924F925F926F927F928F92E6
:1026C0009F92AF92BF92CF92DF92EF92FF920F93C1
:1026D0001F93CF93DF9300D01F921F92CDB7DEB729
:1026E0008C017B013A01DC0115968C9115978130A4
:1026F000C1F414968C9181FF14C082FF1AC0F801B6
:10270000438954896589768982859385A485B585B1
:1027100084179507A607B70761F0C801E1DC8111AE
:1027200008C081E090E0F8019383828380E090E02C
:1027300040C163017FC0D8015B968D919C915C97ED
:10274000FC01F481F150B501A40129E0769567956B
:10275000579547952A95D1F7F423FD8321E09222DE
:10276000FF2309F473C080E092E0881999095601AB
:102770008C159D0508F45C01D8015B96ED91FC91E8
:102780005C9716962D903D904D905C901997B2E015
:102790002B1A310841085108058404C0220C331C4F
:1027A000441C551C0A94D2F786859785A089B18967
:1027B000280E391E4A1E5B1EED812E0E311C411C57
:1027C000511CA114F2E0BF0609F085C08091FC0203
:1027D0009091FD02A091FE02B091FF028215930537
:1027E000A405B50559F48FEF9FEFDC018093FC023F
:1027F0009093FD02A093FE02B093FF029701B201F5
:10280000A1018091320990913309A6D9882309F456
:1028100088CF9EEFF91ACA18DB08F80182859385E4
:10282000A485B5858A0D9B1DA11DB11D8287938747
:10283000A487B587D8011A968D909D90AD90BC90D5
:102840001D97C114D10409F076CF86C0811491047C
:1028500009F089CF16964D915D916D917C911997F4
:10286000411551056105710559F457968D919D915A
:102870000D90BC91A02D0097A105B10531F520C0A8
:102880009E012F5F3F4F54D1882309F450CF898197
:102890009A81AB81BC81F801238D348DF9012789A0
:1028A000203129F448EF5FEF60E070E004C048EFAA
:1028B0005FEF6FEF7FE084179507A607B70728F053
:1028C000C80197D981114FCF2CCFF8018683978308
:1028D000A087B18748CF8114910421F5D8011A96B9
:1028E0004D915D916D917C911D9753968D919D9128
:1028F0000D90BC91A02D481759076A077B0790F0EF
:1029000080D0882309F40DCF2092FC023092FD0282
:102910004092FE025092FF028091310981608093C3
:10292000310907C041E0C201B101A4D0882309F4F4
:10293000F8CEC4018C5C964FD7019C012A0D3B1D3B
:10294000FC01E217F30719F04D914193FACFE81B10
:10295000F90BEE0EFF1E5FCF53968D919D910D905A
:10296000BC91A02DF801248188159905AA05BB0505
:1029700038F4838A948AA58AB68A206824830CC096
:1029800080912B0990912C09892B31F061147104ED
:1029900019F02068F8012483D80114968C9183FDE6
:1029A00002C0C30106C0C80136DC882309F4B9CED1
:1029B000F8CF0F900F900F900F900F90DF91CF9165
:1029C0001F910F91FF90EF90DF90CF90BF90AF904D
:1029D0009F908F907F906F905F904F903F902F903F
:1029E0000895CF93DF931F92CDB7DEB7698341E09F
:1029F00050E0BE016F5F7F4F5CDE0F90DF91CF91A3
:102A0000089580913109882389F14091FC02509109
:102A1000FD026091FE027091FF0224E339E0809193
:102A200032099091330998D8882311F140912D09EA
:102A300050912E0960912F0970913009411551056F
:102A40006105710589F024E339E0809132099091A4
:102A5000330982D8882361F010922D0910922E0933
:102A600010922F09109230091092310981E00895D7
:102A700080E00895CF92DF92EF92FF92CF936B01A7
:102A80007C01C42F8091FC029091FD02A091FE0276
:102A9000B091FF028C159D05AE05BF05C1F0B1DFF9
:102AA000811102C080E019C024E339E0B701A6011A
:102AB000809132099091330902D8882399F3C0920A
:102AC000FC02D092FD02E092FE02F092FF028091A1
:102AD00031098C2B8093310981E0CF91FF90EF90E9
:102AE000DF90CF900895CF92DF92EF92FF926B012B
:102AF0007C0187DF8823B1F0E4E3F9E011928BE0F9
:102B0000E433F807D9F7C092FC02D092FD02E092BC
:102B1000FE02F092FF0280913109816080933109B9
:102B200081E001C080E0FF90EF90DF90CF900895AA
:102B30008F929F92AF92BF92CF92DF92EF92FF92CD
:102B40000F931F93CF93DF938C016A017B01E901FF
:102B5000FC0181859285A385B4850196A11DB11DD7
:102B600084179507A607B70710F480E057C0F8014F
:102B700043895489658976898789803129F4BB27FF
:102B8000AF2D9E2D8D2D09C0D701C60127E0B6952A
:102B9000A795979587952A95D1F74C015D01840EED
:102BA000951EA61EB71EC501B4018090FC02909030
:102BB000FD02A090FE02B090FF02681579058A051B
:102BC0009B0589F4F8018789803191F4DD24EE2496
:102BD000FF24F601EE0FFF1FEC5CF64F8081918120
:102BE000A0E0B0E016C040E045DF8111EBCFBDCFE3
:102BF000E894C7F8DD24EE24FF24F601EE0FFF1F52
:102C0000EE0FFF1FEC5CF64F80819181A281B381B2
:102C1000BF7088839983AA83BB8381E0DF91CF91C2
:102C20001F910F91FF90EF90DF90CF90BF90AF90EA
:102C30009F908F9008954F925F926F927F92AF9284
:102C4000BF92CF92DF92EF92FF920F931F93CF9399
:102C5000DF9300D01F92CDB7DEB78C0149835A8332
:102C60006B837C835901C12CD12C7601412C42E02D
:102C7000542E612C712C49815A816B817C819E017B
:102C80002F5F3F4FC80154DF882359F1D301C201A0
:102C9000F801058404C0880F991FAA1FBB1F0A945E
:102CA000D2F7C80ED91EEA1EFB1E49815A816B81DC
:102CB0007C818789803129F488EF9FEFA0E0B0E024
:102CC00004C088EF9FEFAFEFBFE0481759076A07CE
:102CD0007B0788F2F501C082D182E282F38281E033
:102CE00001C080E00F900F900F900F90DF91CF9177
:102CF0001F910F91FF90EF90DF90CF90BF90AF901A
:102D00007F906F905F904F9008954F925F926F9277
:102D10007F928F929F92AF92BF92CF92DF92EF926B
:102D2000FF920F931F93CF93DF93EC016A017B0116
:102D300028013901423051056105710508F473C05D
:102D400049855A856B857C854F5F5F4F6F4F7F4FFD
:102D50004C155D056E057F0508F465C08B889C8861
:102D6000AD88BE888F89803129F477276F2D5E2D3D
:102D70004D2D09C0B701A601E7E0769567955795F7
:102D80004795EA95D1F7840E951EA61EB71E409171
:102D9000FC025091FD026091FE027091FF028416C8
:102DA0009506A606B70671F48F89803191F4DD246B
:102DB000EE24FF24F601EE0FFF1FEC5CF64F51826C
:102DC000408217C040E0C501B40154DE8111ECCF50
:102DD0002AC0E894C7F8DD24EE24FF24F601EE0FA4
:102DE000FF1FEE0FFF1FEC5CF64F408251826282A4
:102DF0007382809131098160809331098A898230A0
:102E000080F08D819E81AF81B885880D991DAA1DA6
:102E1000BB1D80932D0990932E09A0932F09B09389
:102E2000300981E001C080E0DF91CF911F910F91C7
:102E3000FF90EF90DF90CF90BF90AF909F908F90DA
:102E40007F906F905F904F9008952F923F924F9296
:102E50005F926F927F929F92AF92BF92CF92DF92DA
:102E6000EF92FF920F931F93CF93DF93CDB7DEB70F
:102E700060970FB6F894DEBF0FBECDBF5C014D87E3
:102E80005E876F87788B1901D9014D905D906D90A9
:102E90007C90411451046104710431F0BFEF4B1A6E
:102EA0005B0A6B0A7B0A10C0FC0140805180628083
:102EB0007380992493940D851E852F853889013060
:102EC00011052105310509F0912CD50119962D9197
:102ED0003D914D915C911C972F5F3F4F4F4F5F4F3E
:102EE00029873A874B875C87730162011D821E82A6
:102EF0001F821886F50181859285A385B4850D8191
:102F00001E812F813885081719072A073B0708F00B
:102F100054C029853A854B855C852C153D054E05A9
:102F20005F0550F4A2E0CA2ED12CE12CF12CB2E0C6
:102F30004B2E512C612C712C9E012F5F3F4FB701FE
:102F4000A601C501F5DD8823C1F149815A816B8154
:102F50007C81D701C6010196A11DB11D452B462BD1
:102F6000472B19F02C013D010FC0AC01BD014419E4
:102F70005509660977090D851E852F853889401703
:102F800051076207730779F02D813E814F81588583
:102F90002F5F3F4F4F4F5F4F2D833E834F835887A7
:102FA0006C017D01A7CF0FEF1FEF2FEF3FE0B701BF
:102FB000A601C501AADE811117C080E03FC0D7017C
:102FC000C6010197A109B1098D839E83AF83B8879C
:102FD00097018601AC01BD01C50197DE882369F325
:102FE000CD80DE80EF80F8844C145D046E047F0495
:102FF00030F3D1014D915D916D917C914115510559
:103000006105710599F4F1014082518262827382F7
:10301000992099F0FFEF4F1A5F0A6F0A7F0AD501D6
:103020004D925D926D927C92139707C0930182013D
:10303000C5016BDE8111E7CFC0CF81E060960FB68E
:10304000F894DEBF0FBECDBFDF91CF911F910F91DE
:10305000FF90EF90DF90CF90BF90AF909F907F90C8
:103060006F905F904F903F902F900895AF92BF92D6
:10307000CF92DF92EF92FF920F931F93CF93DF9344
:1030800000D01F92CDB7DEB75C016A017B0182E000
:1030900090E0A0E0B0E0F50180839183A283B38348
:1030A0009E012F5F3F4FB701A601C50141DD882377
:1030B00009F100E010E09801B701A601C50125DE85
:1030C0008823C1F0C980DA80EB80FC80F501878914
:1030D000803129F488EF9FEFA0E0B0E004C088EFD2
:1030E0009FEFAFEFBFE0C816D906EA06FB06C0F2B5
:1030F00081E001C080E00F900F900F900F90DF9162
:10310000CF911F910F91FF90EF90DF90CF90BF90E4
:10311000AF9008958F929F92AF92BF92CF92DF921D
:10312000EF92FF920F931F93CF93DF93EC01142F35
:103130007093330960933209442339F1453010F01C
:1031400080E0EDC040E060E070E0CB0193DC8823DC
:10315000B9F320E1129FF0011124EE51F54F808167
:103160008F7771F784859585A685B7858436910517
:10317000A105B10528F3C084D184E284F384C1148D
:10318000D104E104F10421F4DBCFC12CD12C760170
:1031900040E0C701B6016EDC882391F280913F09BF
:1031A000909140098115924059F63091440933239A
:1031B00039F28091420990914309892B09F4C0CFDB
:1031C00020914109222309F4BBCF3A8B2C831D8621
:1031D00030E041E050E06D85062FCA01062E02C0A6
:1031E000880F991F0A94E2F72817390731F081E018
:1031F000860F8D87683078F3A3CF20914A093091EC
:103200004B092115310519F040E050E008C020912C
:1032100058093091590940915A0950915B092D8301
:103220003E834F835887809142099091430946011C
:103230005701880E991EA11CB11C8B8A9C8AAD8AED
:10324000BE8AE0914509F0914609F98FE88FA09177
:103250004409B0E00E94593C680D791D8A1D9B1DF0
:103260006A8F7B8F8C8F9D8F15E0EE0FFF1F1A9555
:10327000E1F7E150FE4FEF2FFF27E695DC01CB0190
:103280008E0F9F1FA11DB11D8E879F87A88BB98BA5
:1032900080904709909048098114910419F0A12C5D
:1032A000B12C08C08090540990905509A0905609FF
:1032B000B0905709A7019601281B390B4A0B5B0BED
:1032C000DA01C901880D991DAA1DBB1D04C0B69560
:1032D000A795979587950A95D2F789879A87AB879F
:1032E000BC87853F3FE09307A105B10510F48CE052
:1032F00014C0853F9F4FA105B10510F480E10DC0BA
:103300008091600990916109A0916209B09163096F
:103310008A8F9B8FAC8FBD8F80E28F8B81E0DF9196
:10332000CF911F910F91FF90EF90DF90CF90BF90C2
:10333000AF909F908F900895FC01658B08952EEAC1
:1033400034E0FC013183208308952EEA34E0FC014F
:10335000318320830C94A1370F931F93CF93DF9376
:103360008C01EB0188E2FB0111928A95E9F74BE0B1
:1033700050E062EE74E0CE010E94DE3D1B8641E02B
:1033800050E060E070E04C875D876E877F87F801D2
:103390004189528963897489488B598B6A8B7B8BED
:1033A00042E050E060E070E04C8B5D8B6E8B7F8B79
:1033B0001CA21DA21EA21FA2188E198E1A8E1B8E71
:1033C0001C8E1D8E1E8E1F8E18A219A21AA21BA261
:1033D000DF91CF911F910F910895DC01ED91FC9148
:1033E0000190F081E02D1994FC018DEE94E0918321
:1033F0008083418B528B638B748B158A0895CF9396
:10340000DF931F921F92CDB7DEB78BE198E02A833E
:1034100049830E9465054981642F8BE198E00E94F1
:1034200027052A81622F8BE198E00E9427058BE116
:1034300098E00F900F90DF91CF910C94E0050F93DF
:103440001F93CF93DF938C01EB01262F41E06EE1B8
:10345000D6DFF801D483C383C038D10509F45BC03B
:10346000DCF4C034D105A9F1C036D10509F442C05D
:10347000A09709F08AC080E090E8A9E8B4E48093BE
:10348000040390930503A0930603B093070380E021
:1034900090E0A5E7B4E471C0C03CD10509F44CC08C
:1034A000C03ED10509F459C0C03AD10509F06DC03C
:1034B00080E090E0A8ECB3E48093040390930503CC
:1034C000A0930603B093070380E090E8A1EBB3E478
:1034D00054C080E090ECA5E5B4E48093040390939D
:1034E0000503A0930603B093070380E090E0AEE3EA
:1034F000B4E443C080E090E8A7E2B4E4809304031E
:1035000090930503A0930603B093070380E090E037
:10351000A6E1B4E432C080E090E0A1EEB3E4809391
:10352000040390930503A0930603B093070380E080
:1035300090E0A8ECB3E421C080E090E0A5EAB3E419
:103540008093040390930503A0930603B0930703AD
:1035500080E090E8A3E9B3E410C080E090E0A6E644
:10356000B3E48093040390930503A0930603B09300
:10357000070380E090E0ADE4B3E480930003909310
:103580000103A0930203B0930303DF91CF911F9136
:103590000F9108951F93CF93DF931F92CDB7DEB79E
:1035A000162F8BE198E049830E9465054981642FBD
:1035B0008BE198E00E9427058BE198E00E94E005EE
:1035C00041E0612F8BE198E00E94DE058BE198E0FD
:1035D0000E94D804182F8BE198E00E94E005812F0B
:1035E0000F90DF91CF911F9108956F927F928F92EC
:1035F0009F92AF92BF92CF92DF92EF92FF920F9382
:103600001F93CF93DF93EC016EE18BE198E00E9472
:10361000650563E070E08BE198E0DFDE8BE198E028
:103620000E94E00546E06EE18BE198E00E94DE0535
:103630008BE198E00E94D0040697D4F38BE198E0E8
:103640000E94D804682E8BE198E00E94D804782E5E
:103650008BE198E00E94D804C82E8BE198E00E948C
:10366000D804D82E8BE198E00E94D804882E8BE1F4
:1036700098E00E94D804982EB62CA12CA728B5015A
:10368000882777FD8095982F0E94813A6D837E83ED
:103690008F839887F82CE12CE928B701882777FDDC
:1036A0008095982F0E94813A69877A878B879C87BB
:1036B0001C2D00E00D29B801882777FD8095982FF3
:1036C0000E94813A6D877E878F87988BDF91CF919B
:1036D0001F910F91FF90EF90DF90CF90BF90AF9030
:1036E0009F908F907F906F9008952F923F924F926E
:1036F0005F926F927F928F929F92AF92BF92CF9282
:10370000DF92EF92FF920F931F93CF93DF93EC0121
:103710008B0184E2FB0111928A95E9F749E06EE1A1
:10372000CE0138DF80FFF1C0CE015FDF8D898823B5
:1037300009F482C04D805E806F80788489849A8489
:10374000AB84BC84CD84DE84EF84F8882224239467
:1037500020E030E04FEF54ECC301B2010E94E239A7
:1037600018160CF4212C3324339420E030E04FEF72
:1037700054E4C301B2010E94313B87FD312C322851
:103780006624639420E030E04FEF54E4C501B401B7
:103790000E94313B87FD612C63287724739420E0DD
:1037A00030E04FEF54ECC501B4010E94E239181625
:1037B0000CF4712C7628BB24B39420E030E04FEF5A
:1037C00054E4C701B6010E94313B87FDB12C7B2830
:1037D00051F420E030E04FEF54ECC701B6010E94F5
:1037E000E23918164CF18B819C8180369105E1F00D
:1037F0004CF480329105D9F080349105E9F460E60B
:1038000070E017C0803A910561F0803C910531F07D
:103810008038910589F460EA70E00BC060EE70E0DA
:1038200008C060EC70E005C060E870E002C060E4D1
:1038300070E0CE0104DE72CF84E290E0A0E0B0E060
:10384000F80180839183A283B38389899A89AB89A4
:10385000BC8984839583A683B78382E090E0A0E04F
:10386000B0E080879187A287B3870E942532F80154
:10387000608B718B828B938BC0900403D090050377
:10388000E0900603F0900703A70196016D817E8109
:103890008F8198850E94E63920E030E048EC52E4C0
:1038A0000E94353BF801648B758B868B978BA70143
:1038B000960169857A858B859C850E94E63920E092
:1038C00030E048EC52E40E94353BF801608F718F84
:1038D000828F938F20910003309101034091020366
:1038E000509103036D857E858F8598890E94E63906
:1038F00020E030E048EC52E40E94353BF801648F50
:10390000758F868F978F81E001C080E0DF91CF9126
:103910001F910F91FF90EF90DF90CF90BF90AF90ED
:103920009F908F907F906F905F904F903F902F90DF
:1039300008950F931F93FC0160E070E0CB010191AB
:1039400020ED200F2A30A0F4AAE0B0E09B01AC01EA
:103950000E94593C112707FD109500531109222799
:1039600017FD2095322F600F711F821F931FE7CF25
:103970001F910F910895CF93DF93EC016C817D81AE
:103980008E819F816C5C7241854B984F0E94813A79
:1039900020E034E244E759E40E94E63925E33AEFB7
:1039A0004EE85CE30E94353B27E13DE84CE25FE3F3
:1039B0000E94353B2FED3EED4DEB5FE40E94353B21
:1039C0000E944E3A688779878A879B8768817981C8
:1039D0008A819B81645B744A864D92400E94813A41
:1039E00020E034E244E759E40E94E63925E33AEF67
:1039F0004EE85CE30E94353B2FED3EED4DEB5FE47E
:103A00000E94353B0E944E3A6C877D878E879F8748
:103A1000DF91CF910895CF93DF93EC01688579858D
:103A20008A859B850E94813A20E83AE94AE55CE371
:103A30000E94353B0E944E3A64537D4E8A44974023
:103A40006C837D838E839F836C857D858E859F852A
:103A50000E94813A29E438E543E15CE30E94353B6A
:103A60000E944E3A6C547B4589429D4F688379830E
:103A70008A839B83DF91CF9108952F923F924F923B
:103A80005F926F927F928F929F92AF92BF92CF92EE
:103A9000DF92EF92FF920F931F93CF93DF93CDB7F7
:103AA000DEB72C970FB6F894DEBF0FBECDBF7C01FA
:103AB000FC0180849184A284B384B7FC03C0C50157
:103AC000B40107C066277727CB01681979098A09ED
:103AD0009B0928EE33E040E050E00E94373C6983C8
:103AE0007A838B839C83F70144845584668477842E
:103AF00077FC03C0C301B20107C066277727CB015B
:103B0000641975098609970928EE33E040E050E012
:103B10000E94373C1B018C01F701648D758D868DE9
:103B2000978D24893589468957892D833E834F8314
:103B30005887208931894289538929873A874B8759
:103B40005C8721A12F9320A12F93238D2F93228D6A
:103B50002F93218D2F93208D2F93B8EECB2EB3E092
:103B6000DB2EE12CF12CA70196010E94373C9F939C
:103B70008F937F936F935F934F933F932F936D81B9
:103B80007E818F819885A70196010E94153C9F93A5
:103B90008F937F936F935F934F933F932F93698599
:103BA0007A858B859C85A70196010E94373C9F935F
:103BB0008F937F936F935F934F933F932F931F93B5
:103BC0000F933F922F92C301B201A70196010E9469
:103BD000373C5F934F933F932F93FC81FF932B814F
:103BE0002F933A813F9349814F93C501B401A701B7
:103BF00096010E94373C5F934F933F932F9387EF3B
:103C000094E09F938F9389E39BE09F938F930E940F
:103C1000073E0FB6F894DEBF0FBECDBF89E39BE031
:103C20002C960FB6F894DEBF0FBECDBFDF91CF91BB
:103C30001F910F91FF90EF90DF90CF90BF90AF90CA
:103C40009F908F907F906F905F904F903F902F90BC
:103C500008952F923F924F925F926F927F928F9230
:103C60009F92AF92BF92CF92DF92EF92FF920F930B
:103C70001F93CF93DF93CDB7DEB7A0970FB6F8941D
:103C8000DEBF0FBECDBF1C0122968CAC9DACAEAC8E
:103C9000BFAC229726968CAD9DADAEADBFAD26973D
:103CA000898F9A8FAB8FBC8F80E1E9E5F3E0DE016D
:103CB000119601900D928A95E1F76A966EAD7FADEF
:103CC0006A97882777FD8095982F0E94813A20E097
:103CD00030E04AE754E40E94E6392B013C0120E839
:103CE00036E948E15AE460914803709149038091B4
:103CF0004A0390914B030E94313B181634F5C501DD
:103D0000B4010E94813A20E030E04AE754E40E9486
:103D1000E639609348037093490380934A03909374
:103D20004B03698D7A8D8B8D9C8D0E94813A20E0AA
:103D300030E04AE754E40E94E63960934C03709304
:103D40004D0380934E0390934F03D1015C966D9188
:103D50007D918D919C915F970E94813A6B017C01CE
:103D6000F101628D738D882777FD8095982F0E94D1
:103D7000813A9B01AC01C701B6010E94353B20E0AE
:103D800034E244E759E40E94E6396D8F7E8F8F8FCD
:103D900098A3C501B4010E94813A20E030E04AE7CF
:103DA00054E40E94E6394B015C01D10158966D91B3
:103DB0007C915997882777FD8095982F0E94813AAA
:103DC0009B01AC01C701B6010E94353B20E034E203
:103DD00044E759E40E94E639A30192010E94353B71
:103DE0009B01AC01C501B4010E947E39698B7A8BBD
:103DF0008B8B9C8B698D7A8D8B8D9C8D0E94813AEB
:103E000020E030E04AE754E40E94E6396B017C018F
:103E1000A30192016D8D7E8D8F8D98A10E94353BFF
:103E20009B01AC01C701B6010E947E396D8B7E8B70
:103E30008F8B988F2A966CAD7DAD8EAD9FAD2A97F6
:103E40000E94813A20E030E04AE754E40E94E639DB
:103E50009B01AC010E94353B6D877E878F87988BD5
:103E600069837A838B839C83FE0131967F01930162
:103E70008201AE014F5E5F4F68E073E088E493E03B
:103E8000C3D720E030E04AE754E4609148037091E2
:103E9000490380914A0390914B030E94353B0E9455
:103EA0004E3AD10118966D937D938D939C931B97F9
:103EB00020E030E04AE754E460914C0370914D03F8
:103EC00080914E0390914F030E94353B0E944E3AE1
:103ED000F101648775878687978720E030E04AE79D
:103EE00054E460915003709151038091520390917A
:103EF00053030E94353B4B015C0120E030E04AE770
:103F000054E460915403709155038091560390914D
:103F100057030E94353B6B017C016091080370914F
:103F2000090380910A0390910B030E949C3B20E0BF
:103F300030E04AE754E40E94353B0E944E3AD101FA
:103F400050966D937D938D939C935397C10163DD40
:103F5000A5019401C501B4010E94353B2B013C0130
:103F6000A7019601C701B6010E94353B9B01AC0138
:103F7000C301B2010E947E390E949C3B20E030E0E8
:103F80004AE754E40E94353B0E944E3AF101648FA7
:103F9000758F868F978F2B013C01F4E64F0E511CD5
:103FA000611C711C29EC421651046104710440F13A
:103FB0000E94813A2B013C0120E034E244E759E4BD
:103FC000C501B4010E94353BA30192010E94E6396C
:103FD0000E944E3AD10159967C936E93589720E0F7
:103FE00034E244E759E4C701B6010E94353BA3011E
:103FF00092010E94E6390E944E3AF101738F628F5E
:10400000A0960FB6F894DEBF0FBECDBFDF91CF9163
:104010001F910F91FF90EF90DF90CF90BF90AF90E6
:104020009F908F907F906F905F904F903F902F90D8
:1040300008952F923F924F925F926F927F928F924C
:104040009F92AF92BF92CF92DF92EF92FF920F9327
:104050001F93CF93DF93EC018B01CB016ADC4B0103
:104060005C016115710581059105C1F0A0E1B7E220
:104070009B01AC010E94593C6B017C016EE270E037
:10408000C8010E94C53D8C010F5F1F4FC80151DC64
:104090004B015C018C0C9D1CAE1CBF1C6CE270E0E3
:1040A000C8010E94C53DFC01019631802CE232120C
:1040B00001C0312C6CE270E00E94C53D8C010F5FA5
:1040C0001F4FC80136DC6B017C016115710581054C
:1040D0009105C1F0A0E1B7E29B01AC010E94593CFF
:1040E0002B013C016EE270E0C8010E94C53D8C01CD
:1040F0000F5F1F4FC8011DDC6B017C01C40CD51C78
:10410000E61CF71C6CE270E0C8010E94C53D8C0102
:104110000F5F1F4FFC012180FCE22F1201C0212CF8
:10412000C501B40120E432E44FE050E00E94153CA8
:1041300029013A019B01AC01A4E6B0E00E94593C80
:104140002CE330E040E050E00E94153C49015A0168
:10415000A301920160E472E48FE090E00E94F33BDF
:10416000860E971EA81EB91E23E5321208C0B09411
:10417000A09490948094811C911CA11CB11C8882F5
:104180009982AA82BB82C701B60120E432E44FE0E3
:1041900050E00E94153C49015A019B01AC01A4E684
:1041A000B0E00E94593C2CE330E040E050E00E9437
:1041B000153C69017A01A501940160E472E48FE085
:1041C00090E00E94F33BC60ED71EE81EF91E87E55D
:1041D000281208C0F094E094D094C094C11CD11C63
:1041E000E11CF11CCC82DD82EE82FF82CE01C3DBBA
:1041F000C801DF91CF911F910F91FF90EF90DF9059
:10420000CF90BF90AF909F908F907F906F905F9076
:104210004F903F902F900895FF920F931F93CF934D
:10422000DF938C018091380B882309F447C0F12C6F
:104230000230110571F00330110599F001301105BC
:10424000C1F48FEC9CE00E947C33EC018FEC9CE08D
:1042500017C08CE69DE00E947C33EC018CE69DE06B
:104260000FC089E09EE00E947C33EC0189E09EE073
:1042700007C082E39CE00E947C33EC0182E39CE077
:104280000E949533F11002C02E97C4F08F3F81F247
:104290008A3071F22F2D332727FD309597E7F901EA
:1042A000EF54F44FF91611F08D3029F4108210926A
:1042B000380B81E004C08083F394BACF80E0DF91B3
:1042C000CF911F910F91FF9008956F927F928F92DF
:1042D0009F92AF92BF92CF92DF92EF92FF920F9395
:1042E0001F93CF93DF93EC014A015B010E942532BB
:1042F0006B017C01C80CD91CEA1CFB1C80E197E215
:10430000A0E0B0E0888B998BAA8BBB8B83E090E018
:1043100083DF182F882359F046E050E069E575E007
:1043200081EB9BE00E94D03D892B81F708C00E9461
:104330002532C616D706E806F90670F785C00E9432
:1043400025324B015C016CE270E088EB9BE00E943F
:10435000C53DBC016F5F7F4FCE016BDE6CE270E04C
:104360000E94C53DFC011181103381F26CE270E0C6
:1043700003960E94C53D01963C01DBDA6CE270E0D9
:10438000C3010E94C53D01963C01D3DA062F6EE2BF
:1043900070E0C3010E94C53D0196CBDA302F330F88
:1043A000232F220F220F230F620F711D811D911DDC
:1043B00070E080E090E00E947F3A20E030E040E250
:1043C00051E40E94E6392CE53FE842E450E40E94C3
:1043D000353B9B01AC010E94353B2CE13BEE4BE4AD
:1043E00051E40E947E390E949C3B20E030E04AE785
:1043F00054E40E94353B0E944E3A688B798B8A8B3D
:104400009B8B8091340B9091350BA091360BB09122
:10441000370B892B8A2B8B2B79F440E655E068EB20
:104420007BE0CE010E94A1028092340B9092350B6A
:10443000A092360BB092370B8C8A9D8AAE8ABF8AC7
:10444000103309F463CF11E0812FDF91CF911F91D9
:104450000F91FF90EF90DF90CF90BF90AF909F9023
:104460008F907F906F900895CF93DF93EC01CB01F5
:10447000BE010E94ED3D009749F0FE010190002031
:10448000E9F73197EC1BFD0B8E0F9F1FDF91CF914A
:1044900008950F931F93CF93DF9361157105B1F0CA
:1044A000E3DF8C01009791F06DE770E00E94C53D5D
:1044B000EC01009759F01882C8010E94B53D2DE724
:1044C0002883562F472F382F292F04C050E040E073
:1044D00030E02FE4652F742F832F922FDF91CF913F
:1044E0001F910F910895CF92DF92FF920F931F9328
:1044F000CF93DF93EA010FEF1FEF2FEF3FE70E8B14
:104500001F8B288F398F0A8B1B8B2C8B3D8B611552
:104510007105C9F1A9DF8C010097A9F16CE270E087
:104520000E94C53D6C01009771F1FC011082C80129
:104530000E94B53D0E944E3A6A8B7B8B8C8B9D8B83
:104540008CE2F82EF601F1926F01CF010E94B53D89
:104550000E944E3A6E8B7F8B888F998F6DE770E04B
:10456000C6010E94C53D8C01009769F0FC011082D4
:10457000C6010E94B53D0E944E3A6E8B7F8B888F9C
:10458000998FF801F082DF91CF911F910F91FF90E9
:10459000DF90CF900895FC01118210824FEF5FEF02
:1045A0006FEF7FE74283538364837583468357832A
:1045B00060877187428753876487758746875787E7
:1045C000608B718B428B538B648B758B468B578BB7
:1045D000608F718F428F538F648F758F0895AF9264
:1045E000BF92CF92DF92EF92FF920F931F93CF93E0
:1045F000DF938C01EB01BC018AE995E035DF5C01BA
:10460000009709F469C0BC0181EA95E042DF6B01C3
:104610007C0120E030E040E05FE40E94E239882342
:1046200061F0C701B6010E944E3A6E837F8388878E
:10463000998782E090E099838883B50187EA95E0C5
:1046400028DF6B017C0120E030E040E05FE40E9465
:10465000E239882361F0C701B6010E944E3A6A87A9
:104660007B878C879D8782E090E099838883B50162
:104670008BEA95E00EDF6B017C0120E030E040E04A
:104680005FE40E94E239882361F0C701B6010E940D
:104690004E3A6E877F87888B998B82E090E0998372
:1046A0008883AE01B5018EEA95E01DDF8E899F8972
:1046B000A88DB98D8F3F9F4FAF4FBF4769F08A8953
:1046C0009B89AC89BD898F3F9F4FAF4FBF4721F07A
:1046D00082E090E099838883B80182EB95E0C4DEA4
:1046E0005C010097A1F1BC0181EA95E0D2DE6B018B
:1046F0007C0120E030E040E05FE40E94E239882362
:1047000061F0C701B6010E944E3A6E837F838887AD
:10471000998781E090E099838883B50187EA95E0E5
:10472000B8DE6B017C0120E030E040E05FE40E94F5
:10473000E239882361F0C701B6010E944E3A6A87C8
:104740007B878C879D8781E090E099838883B8017F
:1047500088EB95E089DE5C01009709F45DC0BC013F
:104760008DEB95E096DE6B017C0120E030E040E0CF
:104770005FE40E94E239882341F0C701B6010E943C
:104780004E3A6A837B838C839D83AE01B5018EEAAA
:1047900095E0A9DEB5018BEA95E07BDE6B017C013B
:1047A00020E030E040E05FE40E94E239882341F0FD
:1047B000C701B6010E944E3A6E877F87888B998B1E
:1047C000B50181EC95E065DE6B017C0120E030E015
:1047D00040E05FE40E94E239882341F0C701B6015E
:1047E0000E944E3A6A8F7B8F8C8F9D8F8E899F8916
:1047F000A88DB98D8F3F9F4FAF4FBF4769F08A8912
:104800009B89AC89BD898F3F9F4FAF4FBF4721F038
:1048100083E090E099838883B80186EC95E024DEFC
:104820008C01009709F466C0BC018DEB95E031DE88
:104830006B017C0120E030E040E05FE40E94E2395F
:10484000882341F0C701B6010E944E3A6A837B83F8
:104850008C839D83B80181EA95E01BDE6B017C01AE
:1048600020E030E040E05FE40E94E239882341F03C
:10487000C701B6010E944E3A6E837F83888799876D
:10488000B8018BEA95E005DE6B017C0120E030E0A9
:1048900040E05FE40E94E239882341F0C701B6019D
:1048A0000E944E3A6E877F87888B998BAE01B80144
:1048B0008EEA95E018DE8E899F89A88DB98D8F3F8D
:1048C0009F4FAF4FBF47B1F08A899B89AC89BD89A3
:1048D0008F3F9F4FAF4FBF4769F08A819B81AC816B
:1048E000BD818F3F9F4FAF4FBF4721F084E090E0E5
:1048F00099838883DF91CF911F910F91FF90EF9063
:10490000DF90CF90BF90AF900895AF92BF92CF92BB
:10491000DF92EF92FF920F931F93CF93DF93CDB768
:10492000DEB7C054D1090FB6F894DEBF0FBECDBFBD
:104930008C016B01CB012FDEE12CF12C5E0181E4B7
:10494000A80EB11CD801ED91FC910480F581E02DF9
:10495000C8011995181619069CF5D801ED91FC911E
:104960000680F781E02DC8011995E1E0F0E0EC0F39
:10497000FD1FEE0DFF1D808397012F5F3F4FE1E08C
:10498000F0E0EC0FFD1FE20FF31F1082882349F0C7
:104990008A30910531F00D9721F0BFE3EB16F10459
:1049A0006CF0B601CE0101961ADEFE01319611922D
:1049B000EA15FB05E1F7198220E030E07901C2CF6A
:1049C000C05CDF4F0FB6F894DEBF0FBECDBFDF91E6
:1049D000CF911F910F91FF90EF90DF90CF90BF90FC
:1049E000AF9008950F931F93CF93DF93EC018B014A
:1049F000FB01808191818230910509F445C01CF44E
:104A0000019749F0FCC18330910509F4CBC00497AC
:104A100009F456C1F4C162EB75E0CE010E94E037A3
:104A2000F80186819781A085B1858F3F9F4FAF4F59
:104A3000BF47A1F06AEC75E0CE010E94E037F801B3
:104A400046815781608571852AE030E0CE010E9461
:104A5000483863ED75E0CE010E94E037F8018285A9
:104A60009385A485B5858F3F9F4FAF4FBF4709F40E
:104A7000BDC165ED75E0CE010E94E037F8014285C9
:104A8000538564857585A8C16AE975E0CE010E94E9
:104A9000E037F80186819781A085B1858F3F9F4FD0
:104AA000AF4FBF47A1F06AEC75E0CE010E94E0373E
:104AB000F80146815781608571852AE030E0CE019A
:104AC0000E94483863ED75E0CE010E94E037F8019E
:104AD00082859385A485B5858F3F9F4FAF4FBF4794
:104AE000A1F065ED75E0CE010E94E037F801428546
:104AF0005385648575852AE030E0CE010E944838F0
:104B000063ED75E0CE010E94E037F8018289938958
:104B1000A489B5898F3F9F4FAF4FBF4769F1F80117
:104B200086899789A08DB18D8F3F9F4FAF4FBF472B
:104B300019F16CED75E0CE010E94E037F801428971
:104B40005389648975892AE030E0CE010E94483893
:104B500065E873E0CE010E94E037F8014689578985
:104B6000608D718D2AE030E0CE010E94483863EDFF
:104B700075E0CE010E94E037F80186859785A0890F
:104B8000B1898F3F9F4FAF4FBF4709F42FC163EEED
:104B900075E0CE010E94E037F801468557856089AF
:104BA00071891AC168EB75E0CE010E94E037F80107
:104BB00082819381A481B5818F3F9F4FAF4FBF47C3
:104BC000A1F069EE75E0CE010E94E037F801428164
:104BD0005381648175812AE030E0CE010E9448381B
:104BE00063ED75E0CE010E94E037F8018289938978
:104BF000A489B5898F3F9F4FAF4FBF4769F1F80137
:104C000086899789A08DB18D8F3F9F4FAF4FBF474A
:104C100019F16CED75E0CE010E94E037F801428990
:104C20005389648975892AE030E0CE010E944838B2
:104C300065E873E0CE010E94E037F80146895789A4
:104C4000608D718D2AE030E0CE010E94483863ED1E
:104C500075E0CE010E94E037F80186859785A0892E
:104C6000B1898F3F9F4FAF4FBF47A1F063EE75E013
:104C7000CE010E94E037F801468557856089718929
:104C80002AE030E0CE010E94483863ED75E0CE01A5
:104C90000E94E037F801828D938DA48DB58D8F3FF2
:104CA0009F4FAF4FBF4709F4A1C060EF75E0CE0141
:104CB0000E94E037F801428D538D648D758D8CC054
:104CC00066EC75E0CE010E94E037F80182819381A5
:104CD000A481B5818F3F9F4FAF4FBF47A1F069EED1
:104CE00075E0CE010E94E037F80142815381648172
:104CF00075812AE030E0CE010E94483863ED75E00E
:104D0000CE010E94E037F80182899389A489B58990
:104D10008F3F9F4FAF4FBF4769F1F8018689978951
:104D2000A08DB18D8F3F9F4FAF4FBF4719F16CEDF5
:104D300075E0CE010E94E037F80142895389648909
:104D400075892AE030E0CE010E94483865E873E0BA
:104D5000CE010E94E037F80146895789608D718D38
:104D60002AE030E0CE010E94483863ED75E0CE01C4
:104D70000E94E037F80186859785A089B1898F3F29
:104D80009F4FAF4FBF47A1F063EE75E0CE010E9489
:104D9000E037F80146855785608971892AE030E05F
:104DA000CE010E94483863ED75E0CE010E94E037E5
:104DB000F80186819781A085B1858F3F9F4FAF4FC6
:104DC000BF47A1F06AEC75E0CE010E94E037F80120
:104DD00046815781608571852AE030E0CE010E94CE
:104DE000483863ED75E0CE010E94E03769E673E074
:104DF000CE01DF91CF911F910F910C94EB37DF9192
:104E0000CF911F910F9108952F923F924F925F92F1
:104E10006F927F928F929F92AF92BF92CF92DF92CA
:104E2000EF92FF920F931F93CF93DF93CDB7DEB72F
:104E3000CE59DF400FB6F894DEBF0FBECDBF5C0188
:104E40006B014A01280139018E01035C104F80E497
:104E5000F80111928A95E9F780E090E0A0E8BFE3BD
:104E6000F80180839183A283B383848B958BA68B77
:104E7000B78B80A791A7A2A7B3A784AF95AFA6AF22
:104E8000B7AF4086518662867386448E558E668E95
:104E9000778E950141E050E064E070E0CE018955E5
:104EA000914F0BD2960144E050E064E070E0CE01F7
:104EB0008F5E914F02D2940141E050E062E070E0D9
:104EC000CE018558924FF9D141E050E064E070E0A6
:104ED000CE018B51934FC3D1980144E050E064E080
:104EE00070E0CE01815B934FE8D1005C1F4F812CB5
:104EF000912C980185E0282E312CC401B1010E942B
:104F0000023C61E070E0892B11F060E070E08827DE
:104F100077FD8095982FC356D04F2883CD59DF4019
:104F2000C256D04F3883CE59DF400E94813AF801F3
:104F300061937193819391938F01FFEF8F1A9F0A71
:104F4000C356D04F2881CD59DF40C256D04F38814B
:104F5000CE59DF4088E08816910479F644E050E0AD
:104F600062E070E0CE018754944FA7D1CE01875400
:104F7000944F03D2970142E050E062E070E0CE012E
:104F80008D5D944F9AD164E070E0CE018357954FC8
:104F900023D1AE014955514FBE01615B734FCE0124
:104FA0008950964FD2D4AE014B51534FBE01695038
:104FB000764FCE018F59964F15D3BE016F59764F5C
:104FC000CE018955914FC9D4BE01615B734FCE01AB
:104FD0008553974F17D3AE014553574FBE016F5EB0
:104FE000714FCE018B5C974FB0D4AE014B5C574FE5
:104FF000BE01615B734FCE018156984FA6D4BE01AE
:105000006156784FCE018F5E914FA7D488EF95E01F
:105010000E94AB04CE018955914FAFD18CEF95E042
:105020000E94AB04C301B2010E94B00482E096E08A
:105030000E94AB04CE018F5E914F9FD1AE014955C6
:10504000514FBE016754744FCE01875F984F7DD496
:10505000AE01475F584FBE016558724FCE018D5863
:10506000994FC8D2BE016754744FCE0183529A4FF4
:10507000C9D2AE0143525A4FBE016F5E714FCE018D
:10508000895B9A4F62D4AE01495B5A4FBE016754A7
:10509000744FCE018F549B4F58D4AE014D5D544F89
:1050A000BE016F547B4FCE01855E9B4F9BD2BE01EC
:1050B000655E7B4FCE018B579C4F0E944E31AE01F7
:1050C0004B575C4FBE01695B7A4FCE0181519D4FBA
:1050D0003CD4AE014D58594FBE0161517D4FCE01B8
:1050E000875A9D4F32D4AE01475A5D4FBE01695574
:1050F000714FCE018D539E4F75D2BE016D537E4FC1
:10510000CE018955914F29D4AE014754544FBE0169
:1051100061517D4FCE01835D9E4F17D4AE01435D3B
:105120005E4FBE016357754FCE0189569F4F62D2C5
:10513000AE014F5E514FBE0169567F4FCE010196C1
:1051400004D4BE016F5F7F4FCE018F5E914F05D4B7
:1051500086E096E00E94AB04CE018D5D944F0DD1A8
:105160008AE096E00E94AB04CE0181519D4F05D1AB
:1051700088EF95E00E94AB04CE018955914FFDD098
:1051800082E096E00E94AB04CE018F5E914FF5D095
:10519000B501CE018955914FC8D0B601CE018F5EC1
:1051A000914FC3D0C256D04F0FB6F894DEBF0FBE9A
:1051B000CDBFDF91CF911F910F91FF90EF90DF90C6
:1051C000CF90BF90AF909F908F907F906F905F90A7
:1051D0004F903F902F900895EF92FF920F931F935F
:1051E000CF93DF939C011616170614F061E070E070
:1051F000F901EE56FF4F71836083329771836083AC
:10520000669F8001679F100D100D1124E901E0E0F9
:10521000F0E07B018FEFE81AF80ACF01B7010E9496
:10522000023C892B21F040E050E0BA0104C040E08C
:1052300050E060E87FE349935993699379933196FD
:10524000E017F10754F3F901EC56FF4F1182108279
:10525000DF91CF911F910F91FF90EF900895141659
:10526000150614F041E050E0FC01EE56FF4F51836B
:1052700040839B011616170614F021E030E0FC0174
:10528000E057FF4F31832083429FB001439F700D51
:10529000529F700D1124FC0120E030E01192119218
:1052A000119211922F5F3F4F26173707BCF3FC0175
:1052B000EC56FF4F118210820895CF93DF93FA01CD
:1052C0001E161F0614F0E1E0F0E0DC01AE56BF4F01
:1052D000ED93FC93AB011616170614F041E050E075
:1052E000DC01A057BF4F4D935C93E49FE001E59F25
:1052F000D00DF49FD00D1124F901DC0120E030E045
:1053000041915191619171914D935D936D937D9315
:105310002F5F3F4F2C173D079CF3FC01EC56FF4FCE
:1053200011821082DF91CF910895CF93DF93DC013A
:10533000AE56BF4FFC01E057FF4F4D915C9120816D
:105340003181429FE001439FD00D529FD00D112427
:10535000DC01FB0120E030E02C173D075CF44D91AF
:105360005D916D917D9141935193619371932F5F05
:105370003F4FF2CFDF91CF910895CF92DF92EF921E
:10538000FF920F931F93CF93DF93EC01C12CD12C8D
:105390007C0182E9E80EF11C8E0100571F4FF701D6
:1053A00060817181F80120813181629FC001639F1A
:1053B000900D729F900D1124C816D9069CF4C60159
:1053C0000E94023C892B21F48FE395E00E94AB04FC
:1053D00069917991899199910E94B004EFEFCE1A69
:1053E000DE0ADDCFC6010E94023C892B61F48FE307
:1053F00095E0DF91CF911F910F91FF90EF90DF909B
:10540000CF900C94AB04DF91CF911F910F91FF903F
:10541000EF90DF90CF9008958F929F92AF92BF92BE
:10542000CF92DF92EF92FF920F931F93CF93DF9370
:10543000EC017B016A015B0182E9A80EB11CF50158
:10544000408151818B0100571F4FF80160817181AC
:10545000CE0105DFF50120813181F601EE56FF4FC7
:105460008081918128173907B1F4F80180819181F9
:10547000F601E057FF4F408151818417950759F499
:10548000289F4001299F900C389F900C11245E01A9
:1054900000E010E00CC08EE096E00E94AB0481E0DA
:1054A00090E0FE01EC56FF4F918380831AC00815EF
:1054B0001905BCF4F70161917191819191917F017E
:1054C000F60121913191419151916F010E947E39F4
:1054D000F50161937193819391935F010F5F1F4F6A
:1054E000E6CFCE01DF91CF911F910F91FF90EF900A
:1054F000DF90CF90BF90AF909F908F9008958F9244
:105500009F92AF92BF92CF92DF92EF92FF920F9352
:105510001F93CF93DF93EC017B016A015B0182E96A
:10552000A80EB11CF501408151818B0100571F4F1E
:10553000F80160817181CE0192DEF5012081318117
:10554000F601EE56FF4F8081918128173907B1F49B
:10555000F80180819181F601E057FF4F4081518130
:105560008417950759F4289F4001299F900C389F74
:10557000900C11245E0100E010E00CC08BE396E07B
:105580000E94AB0482E090E0FE01EC56FF4F918355
:1055900080831AC008151905BCF4F7016191719157
:1055A000819191917F01F601219131914191519128
:1055B0006F010E947D39F5016193719381939193FD
:1055C0005F010F5F1F4FE6CFCE01DF91CF911F919B
:1055D0000F91FF90EF90DF90CF90BF90AF909F9092
:1055E0008F900895CF93DF93EC0116DFCE01DF910A
:1055F000CF910895CF93DF93EC0181DFCE01DF914E
:10560000CF9108952F923F924F925F926F927F9227
:105610008F929F92AF92BF92CF92DF92EF92FF92C2
:105620000F931F93CF93DF93CDB7DEB728970FB6B5
:10563000F894DEBF0FBECDBF98878F838B014B01DF
:1056400080E9880E911CF401408151817B01F2E9CF
:10565000EF0EF11CF701608171818F819885FFDD6C
:10566000F701A080B1807501EE0CFF1CEE0CFF1C51
:10567000C8018E199F099A838983A0E0B0E000E0F9
:1056800010E01E821D820A151B050CF041C0F401BA
:105690002080318089819A818A0F9B1F9C838B8314
:1056A0006D817E81660F771F660F771FEF81F8850A
:1056B0006E0F7F1F40E050E020E030E080E090E09F
:1056C0002E0D3F1D82159305ACF4CB80DC80C20EFD
:1056D000D31EF60140805180628073806B01C40E3E
:1056E000D51EF601408251826282738201964C5F20
:1056F0005F4FE6CF37FE02C0212C312C8D819E8179
:10570000820D931D9E838D830F5F1F4F1496BBCF19
:105710008F81988528960FB6F894DEBF0FBECDBF57
:10572000DF91CF911F910F91FF90EF90DF90CF907D
:10573000BF90AF909F908F907F906F905F904F90B1
:105740003F902F9008952F923F924F925F926F92C9
:105750007F928F929F92AF92BF92CF92DF92EF9201
:10576000FF920F931F93CF93DF93CDB7DEB7689768
:105770000FB6F894DEBF0FBECDBF988F8F8B6B0135
:105780007A018A010E561F4FF801408151815B0159
:10579000F0E9AF0EB11CF5016081718160DDF601A9
:1057A000EE56FF4F60807180F701E057FF4F808118
:1057B000918168167906A1F4F5010190F081E02D40
:1057C000FE87ED879301220F331F220F331F388B83
:1057D0002F87412C512C1A8219821E8B0D8B1EC0D3
:1057E0008DE696E00E94AB0483E090E0EF89F88DAF
:1057F000EC56FF4F918380838DC037FE02C0212C71
:10580000312CE981FA81E20DF31DFA83E983FFEF80
:105810004F1A5F0A2F853889C20ED31E8D859E854B
:10582000481659060CF076C0ED89FE89208031803B
:105830009101220F331F220F331F3A872987C70197
:10584000821B930B9A8B898BE981FA81EE0FFF1FE4
:10585000EE0FFF1F2F89388DE20FF31FF887EF83BC
:1058600000E010E01C821B828B819C8182159305D5
:1058700024F689899A89800F911F9C8B8B8BEF81ED
:10588000F885E00FF11FFC87EB871E821D82812CBB
:10589000912CA12CB12C8D819E81E985FA858E0FEA
:1058A0009F1F9E838D83A614B7045CF5B601680D17
:1058B000791DAB89BC892D813E81A20FB31F2D912B
:1058C0003D914D915C91FB01608171818281938159
:1058D0000E94353B9B01AC01EB85FC8560817181A9
:1058E000828193810E947E39EB85FC856083718380
:1058F00082839383FFEFAF1ABF0A24E0820E911CCC
:10590000CACF2B813C812F5F3F4F3C832B830C5FA1
:105910001F4FAACF8F89988D68960FB6F894DEBF77
:105920000FBECDBFDF91CF911F910F91FF90EF90F0
:10593000DF90CF90BF90AF909F908F907F906F90AF
:105940005F904F903F902F900895CF93DF93EC019D
:10595000FADECE01DF91CF910895CF93DF93FB0163
:10596000E057FF4F40815181FC01E057FF4F5183C9
:105970004083FB01EE56FF4F20813181FC01EE5642
:10598000FF4F31832083FB01EC56FF4FA081B18193
:10599000FC01EC56FF4FB183A083429FE001439F7F
:1059A000D00D529FD00D1124FB01DC0120E030E02E
:1059B0002C173D075CF441915191619171914D9388
:1059C0005D936D937D932F5F3F4FF2CFDF91CF912A
:1059D00008952F923F924F925F926F927F928F9293
:1059E0009F92AF92BF92CF92DF92EF92FF920F936E
:1059F0001F93CF93DF93CDB7DEB760970FB6F894C0
:105A0000DEBF0FBECDBF2A013B01FC01EE56FF4FAA
:105A1000A080B180329720813181A216B30609F0AF
:105A200079C095012F5F3F4F220F331F220F331F85
:105A3000388B2F87245031093A872987212C312C24
:105A4000812C912C01E010E0AF85B889A80FB91F17
:105A5000B887AF830A151B050CF05EC0EF81F8858F
:105A6000E80DF91DFC87EB872F813885220D331D4A
:105A70003E872D871A8309831C821B821E821D820A
:105A8000ED85FE852B813C81E20FF31F2081318162
:105A900042815381EB85FC858D819E81E80FF91F42
:105AA00060817181828193810E947D396B017C01CB
:105AB00020E030E0A9010E94313B87FF04C0C7010C
:105AC000B601905802C0C701B601A30192010E941D
:105AD000313B1816FCF0A981BA811196BA83A983CB
